S00E00005465747269732E737265639B
S11300000C94A4010C94C1010C94C1010C94C10181
S11300100C94C1010C94C1010C94C1010C94C10154
S11300200C94C1010C94C1010C94C1010C94C10144
S11300300C94C1010C94C1010C944B020C94C101A9
S11300400C94C1010C94C1010C941D020C94C101C7
S11300500C94C1010C94C1010C94C1010C94C10114
S11300600C94C1010C94C1010000010002000300C2
S11300700400050006000700080009000A000B0040
S113008017001600150014001300120011001000D0
S11300900F000E000D000C00180019001A001B00C0
S11300A01C001D001E001F00200021002200230050
S11300B02F002E002D002C002B002A0029002800E0
S11300C027002600250024003000310032003300D0
S11300D03400350036003700380039003A003B0060
S11300E047004600450044004300420041004000F0
S11300F03F003E003D003C00480049004A004B00E0
S11301004C004D004E004F0050005100520053006F
S11301105F005E005D005C005B005A0059005800FF
S113012057005600550054006000610062006300EF
S11301306400650066006700680069006A006B007F
S1130140770076007500740073007200710070000F
S11301506F006E006D006C00780079007A007B00FF
S11301607C007D007E007F0080008100820083008F
S11301708F008E008D008C008B008A00890088001F
S1130180870086008500840090009100920093000F
S11301909400950096009700980099009A009B009F
S11301A0A700A600A500A400A300A200A100A0002F
S11301B09F009E009D009C00A800A900AA00AB001F
S11301C0AC00AD00AE00AF00B000B100B200B300AF
S11301D0BF00BE00BD00BC00BB00BA00B900B8003F
S11301E0B700B600B500B400C000C100C200C3002F
S11301F0C400C500C600C700C800C900CA00CB00BF
S1130200D700D600D500D400D300D200D100D0004E
S1130210CF00CE00CD00CC00D800D900DA00DB003E
S1130220DC00DD00DE00DF00E000E100E200E300CE
S1130230EF00EE00ED00EC00EB00EA00E900E8005E
S1130240E700E600E500E400F000F100F200F3004E
S1130250F400F500F600F700F800F900FA00FB00DE
S11302600701060105010401030102010101000166
S1130270FF00FE00FD00FC00080109010A010B015A
S11302800C010D010E010F011001110112011301E6
S11302901F011E011D011C011B011A011901180176
S11302A01701160115011401200121012201230166
S11302B02401250126012701280129012A012B01F6
S11302C00400000007000300060002000500090006
S11302D008000100080009000200040000000100F9
S11302E006000700050003000800010003000200E7
S11302F005000700040000000900060000000500D6
S113030009000800020001000700060003000400C1
S113031004000000030005000100060003000100C2
S113032004000300020000000600050000000500B0
S113033002000600010003000400000006000100A2
S1130340030005000200040011241FBECFEFD8E013
S1130350DEBFCDBF12E0A0E0B1E0E0E2F4E102C014
S113036005900D92A031B107D9F727E0A0E1B2E0E2
S113037001C01D92A13DB207E1F70E9481020C94D5
S11303800E0A0C940000FC019B01220F331F620F24
S1130390731F8AB180628AB9ABB1AF7D5BB1506221
S11303A0BFB7F89410C09F012F5F3F4F408168E0B2
S11303B05BB947FFABB9440F000000C0ABB96A9505
S11303C0B9F7BC01F901CB010197672B61F7BFBFF6
S11303D085E88A95F1F70000089584B1806284B9B4
S11303E00E94F7062FE788E391E021508040904077
S11303F0E1F700C0000084B1826084B982E085B96D
S113040097E297BD84BD95EC95BDEEE6F0E0908152
S1130410926090831092C50097E69093C4008093F5
S1130420C000E1ECF0E0808188698083E2ECF0E0D8
S1130430808186608083789408951F920F920FB60E
S11304400F9211248F93AF93BF93EF93FF938091F7
S1130450C000E0E1F2E081838181887129F0E2E16A
S1130460F2E08081826080838091C600E0E1F2E066
S11304708083A2E1B2E08C9181608C93808180932F
S11304802802FF91EF91BF91AF918F910F900FBE12
S11304900F901F9018951F920F920FB60F92112470
S11304A08F939F93809113029091140201969093DD
S11304B014028093130280911302909114028436E3
S11304C09105C1F41092140210921302809100015C
S11304D090910101019731F415B810920101109225
S11304E0000108C082E085B981E090E090930101A9
S11304F0809300019F918F910F900FBE0F901F90DA
S113050018950E94ED010E94ED0180912802813628
S1130510A1F080912802833781F0809128028436EB
S113052061F0809128028A3641F0809128028B364E
S113053021F0809128028C3641F70E94F70680E36F
S1130540809328020E94700480912802843689F0E6
S113055028F48530E1F0813641F01BC08B36A1F0E0
S1130560833759F08A36A9F40CC08CE60E94E4055E
S113057010C082E70E94E4050CC084E60E94E405F2
S113058008C00E940F0505C00E94130702C0109204
S11305900E020E94800680E2809328022FE788E3FF
S11305A091E0215080409040E1F700C00000CCCFA2
S11305B0CF93DF93B0E04BC0EEEAF5E081818A0F80
S11305C022812B0F8C30E0F52431D0F54B2F50E0F5
S11305D06A2F70E0FA01EE0FFF1FEE0FFF1FE255C6
S11305E0FA4FE60FF71FC581CC2351F130E090E0BC
S11305F0DDE0D29FF001D39FF00D1124E352FA4FB6
S1130600E80FF91FC083C091C305F901EE0FFF1F66
S11306102E0F3F1F220F331F220F331F23523A4F37
S1130620820F931FFC01EC5FFE4FC083440F551FE4
S1130630440F551F42555A4FFA01E60FF71F158212
S1130640AF5F01C0A0E0A43008F4B6CFBF5FB43000
S1130650C8F385E88A95F1F70000DF91CF910895FA
S1130660DC0130E019C0E32FF0E0EE0FFF1FEE0FC6
S1130670FF1FEA0FFB1FE90FF11D2581222331F033
S113068011962C911197290F2C3058F49F5F01C0BB
S113069090E0943040F33F5F3430D0F380E090E05A
S11306A0089581E090E00895DC0130E027C01196C0
S11306B08C911197890F1296EC911297232F2E0F7C
S11306C0E32FF0E0EE0FFF1FEE0FFF1FEA0FFB1FFB
S11306D0E90FF11D4581413059F44DE0249FF001AB
S11306E01124E352FA4FE80FF11D8081813059F053
S11306F09F5F01C090E09430D0F23F5F3430D0F37C
S113070080E090E0089581E090E00895CF92DF9238
S1130710EF9240E050E0D3C02091AE05222359F17E
S11307202091AF0530E0421753073CF16091B205C8
S113073070E0F901E60FF71F4E175F0704F5E0912B
S1130740B005F0E08E179F07E4F06E0F7F1F861749
S11307509707CCF4BC016E1B7F0BFA01E21BF30B71
S11307609B01220F331F220F331F22553A4FE20FF2
S1130770F31F358109C030E007C030E005C030E028
S113078003C030E001C030E02DE0289FF001299F34
S1130790F00D1124E352FA4FE40FF51F20812223B8
S11307A0B9F19C01220F331FF901E80FF91FEE0F75
S11307B0FF1FEE0FFF1FE40FF51FEE0FFF1FE85999
S11307C0FF4FE491F0E0D901A80FB91FAA0FBB1F96
S11307D0AA0FBB1FA352BA4FA40FB51FAC5FBE4FE5
S11307E02C9130E0BF01660F771FE60FF71FE75D1E
S11307F0FD4FD901AA0FBB1F2A0F3B1FD901AE5FC2
S1130800BE4FCD90DD90EC90C082D182E2824DC08B
S1130810332351F1FC01EE0FFF1FE80FF91FEE0F18
S1130820FF1FEE0FFF1FE40FF51FEE0FFF1FE85928
S1130830FF4FE491F0E02091C30530E0BF01660F63
S1130840771FE60FF71FE75DFD4FD901AA0FBB1F06
S11308502A0F3B1FD901AE5FBE4FCD90DD90EC90C7
S1130860C082D182E28221C0FC01EE0FFF1FE80F9B
S1130870F91FEE0FFF1FEE0FFF1FE40FF51FEE0F22
S1130880FF1FE859FF4FE491F0E09F01220F331F4F
S1130890E20FF31FE75DFD4FC0901502D0901602E2
S11308A0E0901702C082D182E282019602C080E009
S11308B090E0843191050CF42FCF4F5F5F4F4C30A3
S11308C05105ACF36CE271E089E292E00E94C3014D
S11308D085E88A95F1F70000EF90DF90CF900895B6
S11308E0CF93DF93CDB7DEB766970FB6F894DEBF2C
S11308F00FBECDBF90911D02E92FF0E0EE0FFF1F58
S1130900E05FFC4F44914093190280911C02E82F50
S1130910F0E0EE0FFF1FE054FD4F349130931802C6
S11309209F5F90931D028F5F80931C02973010F09D
S113093010921D028A3010F010921C0250E022E244
S1130940249FC001259F900D1124805E9E4FDC01E1
S113095011962C91AEEAB5E014962C931497FC01F1
S1130960808113968C93139786E011968C9311973C
S113097083E012968C93129781E08C9355963C9366
S113098070E025C0872F90E0262F30E0880F991F54
S1130990880F991FA1E1A49FF001A59FF00D1124D8
S11309A0E80FF91FE20FF31F3196EE0FFF1FE05E11
S11309B0FE4FE08182559A4FDC01A20FB31F1596BA
S11309C0EC936F5F01C060E06430E0F27F5F7430ED
S11309D0D0F386E1EEEAF5E0DE01119601900D9286
S11309E08A95E1F786E1FE013196AEEAB5E0019021
S11309F00D928A95E1F70E9486038EEA95E00E94A3
S1130A005403892B19F081E080931A0266960FB67D
S1130A10F894DEBF0FBECDBFDF91CF91089560E0A3
S1130A201AC0862F90E0242F30E0880F991F880F7A
S1130A30991FFC01E255FA4FE20FF31F55818C53C5
S1130A409A4FFC01E20FF31F55834F5F01C040E052
S1130A50443038F36F5F6430D0F3AEEAB5E01196FA
S1130A608C911197E4ECF5E0818312968C911297A6
S1130A70828314968C9114978483833059F5179646
S1130A808C91179785831B968C911B9786831F9651
S1130A908C911F97878316968C91169781871A9647
S1130AA08C911A9782871E968C911E978387159630
S1130AB08C911597858719968C91199786871D9621
S1130AC08C91878710861486108A148A138A128A56
S1130AD0118A4BC090911902992309F474C084308F
S1130AE009F043C0AEEAB5E018968C911897E4EC8F
S1130AF0F5E085831C968C911C97868350968C9187
S1130B005097878354968C915497808717968C912D
S1130B10179781871B968C911B9782871F968C91C0
S1130B201F97838753968C915397848716968C913D
S1130B30169785871A968C911A9786871E968C919C
S1130B401E97878752968C915297808B15968C911D
S1130B501597818B19968C911997828B1D968C9180
S1130B601D97838B51968C91848B84EC95E00E9425
S1130B703003892B31F584EC95E00E945403892BD2
S1130B80E9F01FC0462F50E0272F30E0440F551FD7
S1130B90440F551FFA01EC53FA4FC901E80FF91F2E
S1130BA0258142555A4FFA01E80FF91F25836F5FDB
S1130BB001C060E0643030F37F5F01C070E07430E6
S1130BC0C0F30E9486030895CF93DF93C82F8C3619
S1130BD031F4EEEAF5E081818150818317C08237D8
S1130BE031F4EEEAF5E081818F5F81830FC08436B2
S1130BF069F4EEEAF5E0828181508283811106C0B6
S1130C000E94D8021092AE050E9470048EEA95E00C
S1130C100E943003892B31F48EEA95E00E9454033C
S1130C20892BD1F0CC3631F4EEEAF5E081818F5F87
S1130C30818312C0C23731F4EEEAF5E0818181503C
S1130C4081830AC0C43641F4CEEAD5E08A818F5F3D
S1130C508A830E94D80218820E94860385E88A95B6
S1130C60F1F70000DF91CF910895833109F045C079
S1130C700895482F50E09A012F5F3F4F692F70E08D
S1130C80ADE0A29FF001A39FF00D1124E352FA4FAF
S1130C90E60FF71FB081A49FF001A59FF00D11246A
S1130CA0E352FA4FE60FF71FB083F901EE0FFF1F6F
S1130CB0E20FF31FEE0FFF1FEE0FFF1FE352FA4F79
S1130CC0E60FF71FEC5FFE4F2081FA01EE0FFF1FC6
S1130CD04E0F5F1F440F551F440F551F43525A4F69
S1130CE0460F571FFA01EC5FFE4F20839F5F01C040
S1130CF090E09C3008F4BDCF8F5F8331C8F3089532
S1130D00EF92FF920F931F93CF93DF93C0E0D0E055
S1130D1003E110E061C03DE0309FF001319FF00D30
S1130D201124E352FA4FE80FF91F3081230F019683
S1130D3003C020E080E090E08C30910564F32C3017
S1130D40C0F448C08DE0809FF001819FF00D112414
S1130D50E352FA4FEE0DFF1D10820E94860387EEC8
S1130D6093E00197F1F700C000009FEFE91AF90A38
S1130D7002C0E12CF12C2CE0E216F1041CF3802FCC
S1130D800E9435060F5F1F4F21960E9486038FEF46
S1130D9090E722E0815090402040E1F700C000003D
S1130DA08091AD058F5F8093AD052091DB05309177
S1130DB0DC052F5F3F4F3093DC052093DB05823049
S1130DC048F01092AD0580911B02873018F48F5FB4
S1130DD080931B02015011090C171D070CF0A9CFB9
S1130DE0DF91CF911F910F91FF90EF9008958CE2C6
S1130DF091E00BC00197FC01EE0FFF1FE80FF91FF4
S1130E00E75DFD4F1182108212821816190694F3C1
S1130E106CE271E089E292E00E94C30185E88A9560
S1130E20F1F7000008950F931F93CF9321C08FEF24
S1130E308C0F8093B0058EEA95E00E945403892BB1
S1130E4041F00EEA15E0F801C2830E94D802F801CD
S1130E5010828091B005811109C00E94D8021092BD
S1130E60AE050E9486030E9470040CC00E94860393
S1130E70C091B005C111DBCF8EEA95E00E94540306
S1130E80892BA9F2CF911F910F910895ABE0B0E0A7
S1130E90ECE4F7E00C94D7096C017B018A01FC01B6
S1130EA017821682838181FFCCC1CE0101963C0159
S1130EB0F6019381F70193FD859193FF81917F0161
S1130EC0882309F4BAC1853239F493FD859193FFDF
S1130ED081917F01853229F4B60190E00E943D0999
S1130EE0E7CF912C212C312CFFE1F315D8F08B3274
S1130EF079F038F4803279F08332A1F4232D206123
S1130F001DC08D3261F0803369F4232D216016C039
S1130F10832D8260382EE32DE4603E2E2AC0F32D0B
S1130F20F8601DC037FC2DC020ED280F2A3040F09A
S1130F308E32B9F436FC81C1232D2064322E19C0BF
S1130F4036FE06C08AE0989E200D1124922E11C010
S1130F50EAE02E9E200D1124222EF32DF0623F2E66
S1130F6008C08C3621F4832D8068382E02C0883660
S1130F7041F4F70193FD859193FF81917F018111E4
S1130F80B3CF982F9F7D9554933028F40C5F1F4F57
S1130F909FE399830DC0833631F0833771F0833535
S1130FA009F059C021C0F801808189830E5F1F4F69
S1130FB088248394912C530113C02801F2E04F0E2E
S1130FC0511CF801A080B18036FE03C0692D70E089
S1130FD002C06FEF7FEFC5010E9432094C0182010C
S1130FE0F32DFF773F2E16C0280122E0420E511C3C
S1130FF0F801A080B18036FE03C0692D70E002C004
S11310006FEF7FEFC5010E9427094C01F32DF068B3
S11310103F2E820133FC1BC0822D90E08816990676
S1131020B0F4B60180E290E00E943D092A94F4CF26
S1131030F50137FC859137FE81915F01B60190E09F
S11310400E943D0921102A9421E0821A91088114FA
S1131050910471F7E8C0843611F0893641F5F8013E
S113106037FE07C060817181828193810C5F1F4FBD
S113107008C060817181072E000C880B990B0E5FEC
S11310801F4FF32DFF763F2E97FF09C09095809553
S1131090709561957F4F8F4F9F4FF0683F2E2AE0E8
S11310A030E0A3010E947909882E861845C085374F
S11310B031F4232D2F7EB22E2AE030E025C0932D6B
S11310C0997FB92E8F36C1F018F4883579F0B5C000
S11310D0803719F0883721F0B0C0E92FE061BE2EC7
S11310E0B4FE0DC0FB2DF460BF2E09C034FE0AC04F
S11310F0292F2660B22E06C028E030E005C020E18A
S113110030E002C020E132E0F801B7FE07C06081A0
S11311107181828193810C5F1F4F06C06081718150
S113112080E090E00E5F1F4FA3010E947909882E92
S11311308618FB2DFF773F2E36FE0DC0232D2E7F04
S1131140A22E891458F434FE0BC032FC09C0832D3E
S11311508E7EA82E05C0B82CA32C03C0B82C01C0C9
S1131160B92CA4FE0FC0FE01E80DF11D808180336F
S113117021F49A2D997EA92E09C0A2FE06C0B3942B
S1131180B39404C08A2D867809F0B394A3FC11C0EB
S1131190A0FE06C0B21488F4280C922C9B180EC032
S11311A0B21460F4B60180E290E00E943D09B39469
S11311B0F7CFB21418F42B1802C0982C212CA4FEDB
S11311C010C0B60180E390E00E943D09A2FE17C062
S11311D0A1FC03C088E790E002C088E590E0B60176
S11311E00CC08A2D867859F0A1FE02C08BE201C0A2
S11311F080E2A7FC8DE2B60190E00E943D098914CB
S113120038F4B60180E390E00E943D099A94F7CF48
S11312108A94F301E80DF11D8081B60190E00E94EB
S11312203D098110F5CF222009F442CEB60180E2B7
S113123090E00E943D092A94F6CFF60186819781B9
S113124002C08FEF9FEF2B96E2E10C94F309FC01AF
S11312500590615070400110D8F7809590958E0FDD
S11312609F1F0895FC016150704001900110D8F750
S1131270809590958E0F9F1F08950F931F93CF9382
S1131280DF93FB01238121FD03C08FEF9FEF2CC06F
S113129022FF16C0468157812481358142175307A6
S11312A044F4A081B1819D012F5F3F4F318320839E
S11312B08C93268137812F5F3F4F3783268314C059
S11312C08B01EC01FB010084F185E02D0995892B4C
S11312D0E1F6D80116968D919C9117970196179671
S11312E09C938E931697CE01DF91CF911F910F910E
S11312F00895FA01AA27283051F1203181F1E894A8
S11313006F936E7F6E5F7F4F8F4F9F4FAF4FB1E0F4
S11313103ED0B4E03CD0670F781F891F9A1FA11DEF
S1131320680F791F8A1F911DA11D6A0F711D811DF0
S1131330911DA11D20D009F468943F912AE0269FB5
S113134011243019305D3193DEF6CF010895462F14
S11313504770405D4193B3E00FD0C9F7F6CF462FF5
S11313604F70405D4A3318F0495D31FD405241935E
S113137002D0A9F7EACFB4E0A6959795879577951B
S11313806795BA95C9F700976105710508959B01A2
S1131390AC010A2E06945795479537952795BA952B
S11313A0C9F7620F731F841F951FA01D08952F9204
S11313B03F924F925F926F927F928F929F92AF92E1
S11313C0BF92CF92DF92EF92FF920F931F93CF932E
S11313D0DF93CDB7DEB7CA1BDB0B0FB6F894DEBFC5
S11313E00FBECDBF09942A88398848885F846E84EB
S11313F07D848C849B84AA84B984C884DF80EE8035
S1131400FD800C811B81AA81B981CE0FD11D0FB63D
S1131410F894DEBF0FBECDBFED010895F894FFCF61
S11314200100070707000C00050C000C0C000C0061
S11314300005000C00000C00050C000C0503080C52
S1131440010401000100000000000100010000008F
S11314500000000000000000000000000000000088
S11314600000000401000000000000000100000072
S11314700000000001000000000000000100000066
S11314800000000001030100010001000000000051
S11314900000010000000000000000000000000047
S11314A00000000000000103000000000100000033
S11314B00100010001000000000000000000000025
S11314C00000000000000000010301000100010011
S11314D00000000001000000000000000000000007
S11314E000000000000000000000010300000100F3
S11314F001000000010001000000000000000000E5
S113150000000000000000000000000001030100D2
S113151001000000000000000100010000000000C4
S113152000000000000000000000000000000100B6
S9030000FC
