:100000000C9488010C94A5010C94A5010C94A501F5
:100010000C94A5010C94A5010C94A5010C94A501C8
:100020000C94A5010C94A5010C94A5010C94A501B8
:100030000C94A5010C94A5010C942F020C94A5011D
:100040000C94A5010C94A5010C9401020C94A5013B
:100050000C94A5010C94A5010C94A5010C94A50188
:100060000C94A5010C94A5010000010002000300FE
:100070000400050006000700080009000A000B0044
:1000800017001600150014001300120011001000D4
:100090000F000E000D000C00180019001A001B00C4
:1000A0001C001D001E001F00200021002200230054
:1000B0002F002E002D002C002B002A0029002800E4
:1000C00027002600250024003000310032003300D4
:1000D0003400350036003700380039003A003B0064
:1000E00047004600450044004300420041004000F4
:1000F0003F003E003D003C00480049004A004B00E4
:100100004C004D004E004F00500051005200530073
:100110005F005E005D005C005B005A005900580003
:1001200057005600550054006000610062006300F3
:100130006400650066006700680069006A006B0083
:100140007700760075007400730072007100700013
:100150006F006E006D006C00780079007A007B0003
:100160007C007D007E007F00800081008200830093
:100170008F008E008D008C008B008A008900880023
:100180008700860085008400900091009200930013
:100190009400950096009700980099009A009B00A3
:1001A000A700A600A500A400A300A200A100A00033
:1001B0009F009E009D009C00A800A900AA00AB0023
:1001C000AC00AD00AE00AF00B000B100B200B300B3
:1001D000BF00BE00BD00BC00BB00BA00B900B80043
:1001E000B700B600B500B400C000C100C200C30033
:1001F000C400C500C600C700C800C900CA00CB00C3
:10020000D700D600D500D400D300D200D100D00052
:10021000CF00CE00CD00CC00D800D900DA00DB0042
:10022000DC00DD00DE00DF00E000E100E200E300D2
:10023000EF00EE00ED00EC00EB00EA00E900E80062
:10024000E700E600E500E400F000F100F200F30052
:10025000F400F500F600F700F800F900FA00FB00E2
:10026000070106010501040103010201010100016A
:10027000FF00FE00FD00FC00080109010A010B015E
:100280000C010D010E010F011001110112011301EA
:100290001F011E011D011C011B011A01190118017A
:1002A000170116011501140120012101220123016A
:1002B0002401250126012701280129012A012B01FA
:1002C000040000000700030006000200050009000A
:1002D00008000100080009000200040000000100FD
:1002E00006000700050003000800010003000200EB
:1002F00005000700040000000900060000000500DA
:1003000009000800020001000700060003000400C5
:1003100011241FBECFEFD8E0DEBFCDBF12E0A0E0BA
:10032000B1E0EEE5F4E102C005900D92A435B1070D
:10033000D9F728E0A4E5B2E001C01D92A731B207C9
:10034000E1F70E9465020C942D0A0C940000FC0158
:100350009B01220F331F620F731F8AB180628AB91B
:10036000ABB1AF7D5BB15062BFB7F89410C09F01D5
:100370002F5F3F4F408168E05BB947FFABB9440F47
:10038000000000C0ABB96A95B9F7BC01F901CB0117
:100390000197672B61F7BFBF85E88A95F1F70000E9
:1003A000089584B1806284B90E9416072FE788E31C
:1003B00091E0215080409040E1F700C0000084B1FE
:1003C000826084B982E085B997E297BD84BD95ECDF
:1003D00095BDEEE6F0E09081926090831092C500AA
:1003E00097E69093C4008093C000E1ECF0E0808138
:1003F00088698083E2ECF0E0808186608083789475
:1004000008951F920F920FB60F9211248F93AF93FE
:10041000BF93EF93FF938091C000E4E5F2E0818306
:100420008181887129F0E6E5F2E080818260808335
:100430008091C600E4E5F2E08083A6E5B2E08C910D
:1004400081608C93808180936E02FF91EF91BF91C8
:10045000AF918F910F900FBE0F901F9018951F9224
:100460000F920FB60F9211248F939F938091570292
:100470009091580201969093580280935702809170
:1004800057029091580284369105C1F41092580297
:10049000109257028091000190910101019731F46F
:1004A00015B8109201011092000108C082E085B9D0
:1004B00081E090E090930101809300019F918F91E2
:1004C0000F900FBE0F901F9018950E94D1010E94AF
:1004D000D10180916E028136A1F080916E02833746
:1004E00081F080916E02843661F080916E028A36CE
:1004F00041F080916E028B3621F080916E028C3635
:1005000041F70E94160780E380936E020E94600408
:1005100080916E02843689F028F48530E1F08136CE
:1005200041F01BC08B36A1F0833759F08A36A9F40D
:100530000CC08CE60E94DD0510C082E70E94DD053C
:100540000CC084E60E94DD0508C00E94EA0405C0D4
:100550000E94320702C0109252020E94840680E27A
:1005600080936E022FE788E391E021508040904015
:10057000E1F700C0000080915E02882349F20E94EA
:1005800016070E94FB0610925E02A1CFCF93DF9365
:10059000B0E04BC0E4EFF5E081818A0F22812B0FA0
:1005A0008C30E0F52431D0F54B2F50E06A2F70E00D
:1005B000FA01EE0FFF1FEE0FFF1FEC50FA4FE60F90
:1005C000F71FC581CC2351F130E090E0DDE0D29FF0
:1005D000F001D39FF00D1124ED5DF94FE80FF91FE5
:1005E000C083C0910906F901EE0FFF1F2E0F3F1FB8
:1005F000220F331F220F331F2D5D394F820F931FA0
:10060000FC01EC5FFE4FC083440F551F440F551F84
:100610004C505A4FFA01E60FF71F1582AF5F01C029
:10062000A0E0A43008F4B6CFBF5FB430C8F3109296
:100630005F0285E88A95F1F70000DF91CF91089578
:10064000DC0130E019C0E32FF0E0EE0FFF1FEE0FEA
:10065000FF1FEA0FFB1FE90FF11D2581222331F057
:1006600011962C911197290F2C3058F49F5F01C0DF
:1006700090E0943040F33F5F3430D0F380E090E07E
:10068000089581E090E00895DC0130E027C01196E4
:100690008C911197890F1296EC911297232F2E0FA0
:1006A000E32FF0E0EE0FFF1FEE0FFF1FEA0FFB1F1F
:1006B000E90FF11D4581413059F44DE0249FF001CF
:1006C0001124ED5DF94FE80FF11D8081813059F063
:1006D0009F5F01C090E09430D0F23F5F3430D0F3A0
:1006E00080E090E0089581E090E00895CF92DF925D
:1006F000EF9240E050E0D3C02091F405222359F15D
:100700002091F50530E0421753073CF16091F80560
:1007100070E0F901E60FF71F4E175F0704F5E0914F
:10072000F605F0E08E179F07E4F06E0F7F1F861727
:100730009707CCF4BC016E1B7F0BFA01E21BF30B95
:100740009B01220F331F220F331F2C503A4FE20F11
:10075000F31F358109C030E007C030E005C030E04C
:1007600003C030E001C030E02DE0289FF001299F58
:10077000F00D1124ED5DF94FE40FF51F20812223C8
:10078000B9F19C01220F331FF901E80FF91FEE0F99
:10079000FF1FEE0FFF1FE40FF51FEE0FFF1FE859BD
:1007A000FF4FE491F0E0D901A80FB91FAA0FBB1FBA
:1007B000AA0FBB1FAD5DB94FA40FB51FAC5FBE4FF5
:1007C0002C9130E0BF01660F771FE60FF71FE1594C
:1007D000FD4FD901AA0FBB1F2A0F3B1FD901AE5FE6
:1007E000BE4FCD90DD90EC90C082D182E2824DC0B0
:1007F000332351F1FC01EE0FFF1FE80FF91FEE0F3D
:10080000FF1FEE0FFF1FE40FF51FEE0FFF1FE8594C
:10081000FF4FE491F0E02091090630E0BF01660F40
:10082000771FE60FF71FE159FD4FD901AA0FBB1F34
:100830002A0F3B1FD901AE5FBE4FCD90DD90EC90EB
:10084000C082D182E28221C0FC01EE0FFF1FE80FBF
:10085000F91FEE0FFF1FEE0FFF1FE40FF51FEE0F46
:10086000FF1FE859FF4FE491F0E09F01220F331F73
:10087000E20FF31FE159FD4FC0905902D0905A0288
:10088000E0905B02C082D182E282019602C080E0E9
:1008900090E0843191050CF42FCF4F5F5F4F4C30C7
:1008A0005105ACF36CE271E08FE692E00E94A70183
:1008B00085E88A95F1F70000EF90DF90CF900895DA
:1008C000CF93DF93CDB7DEB766970FB6F894DEBF50
:1008D0000FBECDBF81E080935D0280916202E82F60
:1008E000F0E0EE0FFF1FE054FD4F349130935C02B7
:1008F000909163029F5F909363028F5F8093620287
:10090000973010F0109263028A3010F01092620259
:1009100080E291E0DC0193962C91A4EFB5E014966F
:100920002C931497FC0182A113968C93139786E065
:1009300011968C93119787E012968C93129781E011
:100940008C9355963C9360E01DC0862F90E0242F39
:1009500030E0880F991F880F991FFC01E20FF31FE9
:100960007296EE0FFF1FE05EFE4F50818C509A4F43
:10097000FC01E20FF31F55834F5F01C040E044309C
:1009800020F36F5F6430D0F386E1E4EFF5E0DE0141
:10099000119601900D928A95E1F786E1FE0131965C
:1009A000A4EFB5E001900D928A95E1F70E947603DD
:1009B00084EF95E00E944403892B19F081E0809335
:1009C0005E0266960FB6F894DEBF0FBECDBFDF9114
:1009D000CF91089560E01AC0862F90E0242F30E078
:1009E000880F991F880F991FFC01EC50FA4FE20FF6
:1009F000F31F5581865F994FFC01E20FF31F55836A
:100A00004F5F01C040E0443038F36F5F6430D0F393
:100A1000A4EFB5E011968C911197EAE0F6E081839E
:100A200012969C911297928314968C9114978483BA
:100A30008330C9F517962C91179725831B962C9117
:100A40001B9726831F962C911F97278316962C9110
:100A5000169721871A962C911A9722871E962C9109
:100A60001E97238715962C911597258719962C91FB
:100A7000199726871D962C91278710861486108A31
:100A8000148A138A128A118A209160022F5F2093A0
:100A90006002223019F4915090930C06243040F0FB
:100AA0001092600205C090915D02992309F484C000
:100AB000843009F052C080915D02882309F44DC052
:100AC00080915F02882309F160E043C0862F90E0A7
:100AD000242F30E0880F991F880F991FFC01E20F27
:100AE000F31FE757FF4FEE0FFF1FE05EFE4F5081F1
:100AF000865F994FFC01E20FF31F55834F5F01C0E2
:100B000040E0443018F36F5F01C060E06430C0F330
:100B100081E080935F0221C0862F90E0242F30E097
:100B2000880F991F880F991FFC01E20FF31F72961F
:100B3000EE0FFF1FE05EFE4F5081865F994FFC0174
:100B4000E20FF31F55834F5F01C040E0443020F3B4
:100B50006F5F6430D0F310925F028AE096E00E94EB
:100B60002003892B11F18AE096E00E944403892B2F
:100B7000F1F020C0862F90E0242F30E0880F991FDD
:100B8000880F991FFC01E65FF94FE20FF31F5581B3
:100B90008C509A4FFC01E20FF31F55834F5F01C049
:100BA00040E0443038F36F5F03C060E001C060E0B4
:100BB0006430B0F30E9476030895CF93DF93C82F7B
:100BC0008C3631F4E4EFF5E08181815081831EC0E1
:100BD000823731F4E4EFF5E081818F5F818316C0C5
:100BE0008436A1F4E4EFF5E08281815082838111A3
:100BF0000DC0CF010E944403892B41F40E94C6021C
:100C00001092F4050E9476030E94600484EF95E040
:100C10000E942003892B31F484EF95E00E94440365
:100C2000892BF1F0CC3631F4E4EFF5E081818F5F70
:100C3000818316C0C23731F4E4EFF5E08181815041
:100C400081830EC0C43661F4C4EFD5E08A818F5F22
:100C50008A830E94C60218820E9476030E94600462
:100C60000E94760385E88A95F1F70000DF91CF9125
:100C70000895833109F045C00895482F50E09A0146
:100C80002F5F3F4F692F70E0ADE0A29FF001A39F5F
:100C9000F00D1124ED5DF94FE60FF71FB081A49F11
:100CA000F001A59FF00D1124ED5DF94FE60FF71F40
:100CB000B083F901EE0FFF1FE20FF31FEE0FFF1FCE
:100CC000EE0FFF1FED5DF94FE60FF71FEC5FFE4FD4
:100CD0002081FA01EE0FFF1F4E0F5F1F440F551FBB
:100CE000440F551F4D5D594F460F571FFA01EC5FDA
:100CF000FE4F20839F5F01C090E09C3008F4BDCF81
:100D00008F5F8331C8F30895EF92FF920F931F9383
:100D1000CF93DF93C0E0D0E003E110E061C03DE09D
:100D2000309FF001319FF00D1124ED5DF94FE80F78
:100D3000F91F3081230F019603C020E080E090E08E
:100D40008C30910564F32C30C0F448C08DE0809F56
:100D5000F001819FF00D1124ED5DF94FEE0DFF1DA7
:100D600010820E94760387EE93E00197F1F700C0AE
:100D700000009FEFE91AF90A02C0E12CF12C2CE0E7
:100D8000E216F1041CF3802F0E9439060F5F1F4FFB
:100D900021960E9476038FEF90E722E081509040E9
:100DA0002040E1F700C000008091F3058F5F809341
:100DB000F30520912106309122062F5F3F4F30939B
:100DC000220620932106823048F01092F30580918C
:100DD0006102873018F48F5F80936102015011091E
:100DE0000C171D070CF0A9CFDF91CF911F910F9128
:100DF000FF90EF90089540E050E014C02DE0289F50
:100E0000F001299FF00D1124ED5DF94FE40FF51F5E
:100E10001082019602C080E090E08431910574F365
:100E20004F5F5F4F4C305105B4F308958CE291E071
:100E30000BC00197FC01EE0FFF1FE80FF91FE159EE
:100E4000FD4F1182108212821816190694F36CE27B
:100E500071E08FE692E00E94A70185E88A95F1F79C
:100E6000000008950F931F93CF9321C08FEF8C0F35
:100E70008093F60584EF95E00E944403892B41F0AE
:100E800004EF15E0F801C2830E94C602F801108247
:100E90008091F605811109C00E94C6021092F405E6
:100EA0000E9476030E9460040CC00E947603C091E9
:100EB000F605C111DBCF84EF95E00E944403892B36
:100EC000A9F2CF911F910F910895ABE0B0E0EBE64E
:100ED000F7E00C94F6096C017B018A01FC01178292
:100EE0001682838181FFCCC1CE0101963C01F601BF
:100EF0009381F70193FD859193FF81917F01882371
:100F000009F4BAC1853239F493FD859193FF81913B
:100F10007F01853229F4B60190E00E945C09E7CF99
:100F2000912C212C312CFFE1F315D8F08B3279F084
:100F300038F4803279F08332A1F4232D20611DC072
:100F40008D3261F0803369F4232D216016C0832D2A
:100F50008260382EE32DE4603E2E2AC0F32DF86027
:100F60001DC037FC2DC020ED280F2A3040F08E32F6
:100F7000B9F436FC81C1232D2064322E19C036FE0F
:100F800006C08AE0989E200D1124922E11C0EAE03E
:100F90002E9E200D1124222EF32DF0623F2E08C02C
:100FA0008C3621F4832D8068382E02C0883641F4B7
:100FB000F70193FD859193FF81917F018111B3CF5B
:100FC000982F9F7D9554933028F40C5F1F4F9FE31B
:100FD00099830DC0833631F0833771F0833509F082
:100FE00059C021C0F801808189830E5F1F4F88247A
:100FF0008394912C530113C02801F2E04F0E511C31
:10100000F801A080B18036FE03C0692D70E002C0F7
:101010006FEF7FEFC5010E9451094C018201F32D52
:10102000FF773F2E16C0280122E0420E511CF80126
:10103000A080B18036FE03C0692D70E002C06FEF62
:101040007FEFC5010E9446094C01F32DF0683F2E49
:10105000820133FC1BC0822D90E088169906B0F403
:10106000B60180E290E00E945C092A94F4CFF50179
:1010700037FC859137FE81915F01B60190E00E94B7
:101080005C0921102A9421E0821A910881149104AC
:1010900071F7E8C0843611F0893641F5F80137FE62
:1010A00007C060817181828193810C5F1F4F08C0EE
:1010B00060817181072E000C880B990B0E5F1F4F0A
:1010C000F32DFF763F2E97FF09C090958095709580
:1010D00061957F4F8F4F9F4FF0683F2E2AE030E0A1
:1010E000A3010E949809882E861845C0853731F4DF
:1010F000232D2F7EB22E2AE030E025C0932D997F3C
:10110000B92E8F36C1F018F4883579F0B5C0803724
:1011100019F0883721F0B0C0E92FE061BE2EB4FE8F
:101120000DC0FB2DF460BF2E09C034FE0AC0292F6C
:101130002660B22E06C028E030E005C020E130E095
:1011400002C020E132E0F801B7FE07C06081718182
:10115000828193810C5F1F4F06C06081718180E0A6
:1011600090E00E5F1F4FA3010E949809882E8618F9
:10117000FB2DFF773F2E36FE0DC0232D2E7FA22E96
:10118000891458F434FE0BC032FC09C0832D8E7EC6
:10119000A82E05C0B82CA32C03C0B82C01C0B92CB4
:1011A000A4FE0FC0FE01E80DF11D8081803321F403
:1011B0009A2D997EA92E09C0A2FE06C0B394B394BD
:1011C00004C08A2D867809F0B394A3FC11C0A0FE58
:1011D00006C0B21488F4280C922C9B180EC0B214CE
:1011E00060F4B60180E290E00E945C09B394F7CF0E
:1011F000B21418F42B1802C0982C212CA4FE10C095
:10120000B60180E390E00E945C09A2FE17C0A1FC39
:1012100003C088E790E002C088E590E0B6010CC00A
:101220008A2D867859F0A1FE02C08BE201C080E2CF
:10123000A7FC8DE2B60190E00E945C09891438F4A5
:10124000B60180E390E00E945C099A94F7CF8A94FB
:10125000F301E80DF11D8081B60190E00E945C0968
:101260008110F5CF222009F442CEB60180E290E051
:101270000E945C092A94F6CFF6018681978102C00C
:101280008FEF9FEF2B96E2E10C94120AFC01059080
:10129000615070400110D8F7809590958E0F9F1F78
:1012A0000895FC016150704001900110D8F78095BD
:1012B00090958E0F9F1F08950F931F93CF93DF93E9
:1012C000FB01238121FD03C08FEF9FEF2CC022FF84
:1012D00016C046815781248135814217530744F453
:1012E000A081B1819D012F5F3F4F318320838C937B
:1012F000268137812F5F3F4F3783268314C08B01B0
:10130000EC01FB010084F185E02D0995892BE1F6C4
:10131000D80116968D919C911797019617969C93DC
:101320008E931697CE01DF91CF911F910F91089563
:10133000FA01AA27283051F1203181F1E8946F9306
:101340006E7F6E5F7F4F8F4F9F4FAF4FB1E03ED0AC
:10135000B4E03CD0670F781F891F9A1FA11D680F4A
:10136000791F8A1F911DA11D6A0F711D811D911D7D
:10137000A11D20D009F468943F912AE0269F1124F2
:101380003019305D3193DEF6CF010895462F477056
:10139000405D4193B3E00FD0C9F7F6CF462F4F70B1
:1013A000405D4A3318F0495D31FD4052419302D00F
:1013B000A9F7EACFB4E0A6959795879577956795B5
:1013C000BA95C9F700976105710508959B01AC01B5
:1013D0000A2E06945795479537952795BA95C9F7DC
:1013E000620F731F841F951FA01D08952F923F92B7
:1013F0004F925F926F927F928F929F92AF92BF9225
:10140000CF92DF92EF92FF920F931F93CF93DF93D0
:10141000CDB7DEB7CA1BDB0B0FB6F894DEBF0FBE2D
:10142000CDBF09942A88398848885F846E847D847A
:101430008C849B84AA84B984C884DF80EE80FD807C
:101440000C811B81AA81B981CE0FD11D0FB6F894F2
:0E145000DEBF0FBECDBFED010895F894FFCFB3
:10145E00010078787800CC0050CC00CCCC00CC00C9
:10146E00005000CC0000CC0050CC00CC513284CCCB
:10147E000104010001000000000001000100000055
:10148E00000000000000000000000000000000004E
:10149E000000000401000000000000000100000038
:1014AE00000000000100000000000000010000002C
:1014BE000000000001030100010001000000000017
:1014CE00000001000000000000000000000000000D
:1014DE0000000000000001030000000001000000F9
:1014EE0001000100010000000000000000000000EB
:1014FE0000000000000000000103010001000100D7
:10150E0000000000010000000000000000000000CC
:10151E0000000000000000000000010300000100B8
:10152E0001000000010001000000000000000000AA
:10153E000000000000000000000000000103010098
:10154E00010000000000000001000100000000008A
:10155E000000000000000000000000000000010478
:10156E000100010001000100000000000000000069
:10157E00000000000000000000000000000000005D
:10158E000104010001000100010000000000000044
:10159E00000000000000000000000000000000003D
:0415AE000000010038
:00000001FF
