S00E00005465747269732E737265639B
S11300000C94AC010C94C9010C94C9010C94C90161
S11300100C94C9010C94C9010C94C9010C94C90134
S11300200C94C9010C94C9010C94C9010C94C90124
S11300300C94C9010C94C9010C9459020C94C90183
S11300400C94C9010C94C9010C942B020C94C901A1
S11300500C94C9010C94C9010C94C9010C94C901F4
S11300600C94C9010C94C901D208DF08EC08F90802
S11300700609130920092D090000010002000300EC
S11300800400050006000700080009000A000B0030
S113009017001600150014001300120011001000C0
S11300A00F000E000D000C00180019001A001B00B0
S11300B01C001D001E001F00200021002200230040
S11300C02F002E002D002C002B002A0029002800D0
S11300D027002600250024003000310032003300C0
S11300E03400350036003700380039003A003B0050
S11300F047004600450044004300420041004000E0
S11301003F003E003D003C00480049004A004B00CF
S11301104C004D004E004F0050005100520053005F
S11301205F005E005D005C005B005A0059005800EF
S113013057005600550054006000610062006300DF
S11301406400650066006700680069006A006B006F
S113015077007600750074007300720071007000FF
S11301606F006E006D006C00780079007A007B00EF
S11301707C007D007E007F0080008100820083007F
S11301808F008E008D008C008B008A00890088000F
S113019087008600850084009000910092009300FF
S11301A09400950096009700980099009A009B008F
S11301B0A700A600A500A400A300A200A100A0001F
S11301C09F009E009D009C00A800A900AA00AB000F
S11301D0AC00AD00AE00AF00B000B100B200B3009F
S11301E0BF00BE00BD00BC00BB00BA00B900B8002F
S11301F0B700B600B500B400C000C100C200C3001F
S1130200C400C500C600C700C800C900CA00CB00AE
S1130210D700D600D500D400D300D200D100D0003E
S1130220CF00CE00CD00CC00D800D900DA00DB002E
S1130230DC00DD00DE00DF00E000E100E200E300BE
S1130240EF00EE00ED00EC00EB00EA00E900E8004E
S1130250E700E600E500E400F000F100F200F3003E
S1130260F400F500F600F700F800F900FA00FB00CE
S11302700701060105010401030102010101000156
S1130280FF00FE00FD00FC00080109010A010B014A
S11302900C010D010E010F011001110112011301D6
S11302A01F011E011D011C011B011A011901180166
S11302B01701160115011401200121012201230156
S11302C02401250126012701280129012A012B01E6
S11302D004000000070003000600020005000900F6
S11302E008000100080009000200040000000100E9
S11302F006000700050003000800010003000200D7
S113030005000700040000000900060000000500C5
S113031009000800020001000700060003000400B1
S113032004000000030005000100060003000100B2
S113033004000300020000000600050000000500A0
S11303400200060001000300040000000600010092
S1130350030005000200040011241FBECFEFD8E003
S1130360DEBFCDBF11E0A0E0B1E0ECE2F3E202C0F9
S113037005900D92A03AB107D9F727E0A0EAB1E0C1
S113038001C01D92AC34B207E1F70E948F020C94B5
S113039094110C940000FC019B01220F331F620F87
S11303A0731F8AB180628AB9ABB1AF7D5BB1506211
S11303B0BFB7F89410C09F012F5F3F4F408168E0A2
S11303C05BB947FFABB9440F000000C0ABB96A95F5
S11303D0B9F7BC01F901CB010197672B61F7BFBFE6
S11303E085E88A95F1F70000089584B1806284B9A4
S11303F00E94A1070E9411050E94BD070E945B098B
S11304002FE788E391E0215080409040E1F700C05D
S1130410000084B1826084B982E085B997E297BD17
S113042084BD95EC95BDEEE6F0E0908192609083FA
S11304301092C50097E69093C4008093C000E1EC4D
S1130440F0E0808188698083E2ECF0E0808186605E
S11304508083789408951F920F920FB60F921124FF
S11304608F93AF93BF93EF93FF938091C000E0EA23
S1130470F1E081838181887129F0E2EAF1E08081F1
S1130480826080838091C600E0EAF1E08083A2EA82
S1130490B1E08C9181608C9380818093B801FF914D
S11304A0EF91BF91AF918F910F900FBE0F901F905E
S11304B018951F920F920FB60F9211248F939F934A
S11304C08091A3019091A40101969093A40180933B
S11304D0A3018091A3019091A40184369105C1F4F4
S11304E01092A4011092A301809100019091010146
S11304F0019731F415B8109201011092000108C05F
S113050082E085B981E090E090930101809300013D
S11305109F918F910F900FBE0F901F9018950E947E
S1130520F5018091B8018136A1F08091B80183373B
S113053081F08091B801843661F08091B8018A36E7
S113054041F08091B8018B3621F08091B8018C364E
S113055041F780E28093B8010E94A1070E9411052F
S11305600E94BD030E94C5088091B801843689F0B9
S113057028F48530E1F0813641F01DC08B36A1F0BE
S1130580833759F08A36B9F40CC08CE60E9495067C
S113059012C082E70E9495060EC084E60E9495066A
S11305A00AC00E94C00507C00E943A0904C0109204
S11305B09E010E94F0020E94320780E28093B801FB
S11305C02FE788E391E0215080409040E1F700C09C
S11305D000008091AA01882329F21092AA019FCFDA
S11305E080919E018111FCCF08951F93CF93DF93D7
S11305F0B0E040C0EEE3F5E081818A0F22812B0F49
S11306008C3090F5243180F54B2F50E06A2F70E048
S1130610FA01EE0FFF1FEE0FFF1FE25CFA4FE60F29
S1130620F71F1581112301F130E090E0E901CC0FAF
S1130630DD1FFE01E20FF31FEE0FFF1FEE0FFF1F82
S1130640E459FA4FE80FF91F108310915305E05154
S1130650FF4F1083440F551F440F551F425C5A4FE0
S1130660FA01E60FF71F1582AF5F01C0A0E0A430C6
S113067008F2BF5FB430D0F385E88A95F1F7000043
S1130680DF91CF911F910895DC0130E019C0E32F71
S1130690F0E0EE0FFF1FEE0FFF1FEA0FFB1FE90F45
S11306A0F11D2581222331F011962C911197290FE8
S11306B02C3058F49F5F01C090E0943040F33F5FCA
S11306C03430D0F380E090E0089581E090E0089524
S11306D0DC0140E02CC011969C911197980F129662
S11306E02C911297240FE42FF0E0EE0FFF1FEE0F72
S11306F0FF1FEA0FFB1FE80FF11D3581313089F42C
S113070030E0F901EE0FFF1FE20FF31FEE0FFF1FA2
S1130710EE0FFF1FE459FA4FE90FF11D908191305C
S113072059F08F5F01C080E08430A8F24F5F4430FD
S1130730D0F380E090E0089581E090E0089527E010
S113074030E017C0FC01EE0FFF1FE80FF91FEE0F9A
S1130750FF1FEE0FFF1FE459FA4FE20FF31F108241
S1130760019602C084E190E0883191055CF32F5F2B
S11307703F4F2C303105B4F30895CF93DF93E091CC
S1130780AD01F0E0EE0FFF1FE05EFC4F649160935B
S1130790A901E091AC01F0E0EE0FFF1FE053FD4F23
S11307A0E491E093A80170E0DB01AA0FBB1FCD0127
S11307B0880F991F880F991F880F991FA80FB91FB9
S11307C0A05EBE4F11968C911197CEE3D5E08C8339
S11307D08C918B83ED8B84E18A8389E08983B0E0FB
S11307E028C04A2F50E02B2F30E0440F551F440FF0
S11307F0551FFB01EE0FFF1FCF01880F991F880FB4
S1130800991F880F991FE80FF91FE40FF51FE05E89
S1130810FE4FC901E80FF91F2281425C5A4FFA01C9
S1130820E80FF91F2583AF5F01C0A0E0A430C8F230
S1130830BF5FB430D0F30E94F50285E88A95F1F7E2
S11308400000DF91CF910895CF92DF92EF9240E0C4
S113085050E0D6C020913E05222359F120913F0556
S113086030E0421753073CF16091420570E0F90112
S1130870E60FF71F4E175F0704F5E0914005F0E01F
S11308808E179F07E4F06E0F7F1F86179707CCF42F
S1130890BC016E1B7F0BFA01E21BF30B9B01220FC1
S11308A0331F220F331F225C3A4FE20FF31F3581AF
S11308B009C030E007C030E005C030E003C030E0DC
S11308C001C030E0FC01EE0FFF1FE80FF91FEE0F2F
S11308D0FF1FEE0FFF1FE459FA4FE40FF51F2081AD
S11308E02223B9F19C01220F331FF901E80FF91FEC
S11308F0EE0FFF1FEE0FFF1FE40FF51FEE0FFF1F9C
S1130900E858FF4FE491F0E0D901A80FB91FAA0FEE
S1130910BB1FAA0FBB1FA459BA4FA40FB51FA051E8
S1130920BF4F2C9130E0BF01660F771FE60FF71F12
S1130930E754FE4FD901AA0FBB1F2A0F3B1FD90151
S1130940AE5FBE4FCD90DD90EC90C082D182E2824A
S11309504DC0332351F1FC01EE0FFF1FE80FF91FC7
S1130960EE0FFF1FEE0FFF1FE40FF51FEE0FFF1F2B
S1130970E858FF4FE491F0E02091530530E0BF01C7
S1130980660F771FE60FF71FE754FE4FD901AA0F32
S1130990BB1F2A0F3B1FD901AE5FBE4FCD90DD9028
S11309A0EC90C082D182E28221C0FC01EE0FFF1FD5
S11309B0E80FF91FEE0FFF1FEE0FFF1FE40FF51FE7
S11309C0EE0FFF1FE858FF4FE491F0E09F01220F64
S11309D0331FE20FF31FE754FE4FC090A501D090E0
S11309E0A601E090A701C082D182E282019602C0F2
S11309F080E090E0843191050CF42CCF4F5F5F4F81
S1130A004C305105ACF36CE271E089EB91E00E944B
S1130A10CB0185E88A95F1F70000EF90DF90CF9045
S1130A200895CF93DF93CDB7DEB766970FB6F894EA
S1130A30DEBF0FBECDBF9091AD01E92FF0E0EE0F08
S1130A40FF1FE05EFC4F44914093A9018091AC01EB
S1130A50E82FF0E0EE0FFF1FE053FD4F6491609329
S1130A60A8019F5F9093AD018F5F8093AC01973095
S1130A7010F01092AD018A3010F01092AC0150E0E9
S1130A809A01220F331FC901880F991F880F991FDC
S1130A90880F991F820F931F805E9E4FDC01119671
S1130AA02C91AEE3B5E014962C931497FC0190813D
S1130AB013969C931397269586E0821B11968C932C
S1130AC0119784E1891B12968C93129781E08C9381
S1130AD055966C93B0E028C06A2F70E02B2F30E05D
S1130AE0660F771F660F771FFA01EE0FFF1FCF0106
S1130AF0880F991F880F991F880F991FE80FF91FF6
S1130B00E60FF71FE05EFE4FC901E80FF91F2281CF
S1130B10625C7A4FFB01E80FF91F2583AF5F01C0C8
S1130B20A0E0A430C8F2BF5FB430D0F386E1EEE3B6
S1130B30F5E0DE01119601900D928A95E1F70E948D
S1130B40BD0386E1FE013196AEE3B5E001900D925E
S1130B508A95E1F70E9424040E949F038EE395E0A6
S1130B600E946803892B19F081E08093AA0166969C
S1130B700FB6F894DEBF0FBECDBFDF91CF910895BD
S1130B8060E01AC0862F90E0242F30E0880F991F70
S1130B90880F991FFC01E25CFA4FE20FF31F5581A5
S1130BA08C5A9A4FFC01E20FF31F55834F5F01C02B
S1130BB040E0443038F36F5F6430D0F3AEE3B5E027
S1130BC011968C911197E4E5F5E0818312968C914E
S1130BD01297828314968C9114978483833059F5E9
S1130BE017968C91179785831B968C911B978683F8
S1130BF01F968C911F97878316968C9116978187E1
S1130C001A968C911A9782871E968C911E978387C9
S1130C1015968C911597858719968C9119978687C7
S1130C201D968C91878710861486108A148A138ADD
S1130C30128A118A4BC09091A901992309F474C0B6
S1130C40843009F043C0AEE3B5E018968C91189750
S1130C50E4E5F5E085831C968C911C978683509679
S1130C608C915097878354968C91549780871796CC
S1130C708C91179781871B968C911B9782871F965F
S1130C808C911F97838753968C91539784871696DC
S1130C908C91169785871A968C911A9786871E963B
S1130CA08C911E97878752968C915297808B1596BC
S1130CB08C911597818B19968C911997828B1D961F
S1130CC08C911D97838B51968C91848B84E595E050
S1130CD00E944403892B31F584E595E00E94680362
S1130CE0892BE9F01FC0462F50E0272F30E0440F36
S1130CF0551F440F551FFA01EC5AFA4FC901E80F6A
S1130D00F91F2581425C5A4FFA01E80FF91F258328
S1130D106F5F01C060E0643030F37F5F01C070E05A
S1130D207430C0F30E9424040895CF93DF93C82F36
S1130D308C3631F4EEE3F5E081818150818319C072
S1130D40823731F4EEE3F5E081818F5F818311C056
S1130D50843679F4EEE3F5E0828181508283811157
S1130D6008C00E94F50210923E050E949F030E9453
S1130D7011058EE395E00E944403892B31F48EE340
S1130D8095E00E946803892BE1F0CC3631F4EEE360
S1130D90F5E081818F5F818314C0C23731F4EEE3C3
S1130DA0F5E08181815081830CC0C43651F4CEE3D7
S1130DB0D5E08A818F5F8A830E94F50218820E949F
S1130DC09F030E94240485E88A95F1F70000DF91CF
S1130DD0CF9108951F93CF93DF938331E9F53EC0FC
S1130DE0482F50E09A012F5F3F4F692F70E0F901BF
S1130DF0EE0FFF1FDF01A20FB31FAA0FBB1FAA0F25
S1130E00BB1FA459BA4FA60FB71F1C91DA01AA0F32
S1130E10BB1FED01C40FD51FCC0FDD1FCC0FDD1F91
S1130E20C459DA4FC60FD71F1883E20FF31FEE0F12
S1130E30FF1FEE0FFF1FE459FA4FE60FF71FE051B3
S1130E40FF4F2081FE01E051FF4F20839F5F01C0CF
S1130E5090E09C3028F28F5F8331D0F3DF91CF9103
S1130E601F910895EF92FF920F931F93CF93DF93F7
S1130E70C0E0D0E003E110E059C0F801EE0FFF1F1D
S1130E80E00FF11FEE0FFF1FEE0FFF1FE459FA4FA3
S1130E90E80FF91F3081230F019603C020E080E0A2
S1130EA090E08C3091054CF32C30D8F43DC0F8011F
S1130EB0EE0FFF1FE00FF11FEE0FFF1FEE0FFF1FDE
S1130EC0E459FA4FEE0DFF1D10820E9424048BE2B8
S1130ED091E00197F1F700C000009FEFE91AF90AC9
S1130EE002C0E12CF12C8CE0E816F10404F3802F0D
S1130EF00E94EA060F5F1F4F21960E9424048091EE
S1130F003D058F5F80933D0590916B059F5F9093A6
S1130F106B05823048F010923D058091AB0187301B
S1130F2018F48F5F8093AB01015011090C171D0752
S1130F300CF0B4CFDF91CF911F910F91FF90EF9000
S1130F4008958CE291E00BC00197FC01EE0FFF1FA6
S1130F50E80FF91FE754FE4F11821082128218160F
S1130F60190694F36CE271E089EB91E00E94CB01E5
S1130F7085E88A95F1F70000089580E090E018C0B4
S1130F80FC01EE0FFF1FE858FF4FE491F0E09F01D2
S1130F90220F331FE20FF31FE754FE4F2091050188
S1130FA030910601409107012083318342830196E9
S1130FB0843091052CF380E090E027C0FC013C963E
S1130FC0EE0FFF1FE858FF4FE491F0E09F01220F5E
S1130FD0331FE20FF31FE754FE4F209108013091B5
S1130FE0090140910A01208331834283EAEAF0E057
S1130FF0E491F0E0BF01660F771FE60FF71FE75497
S1131000FE4F208331834283019683309105B4F2ED
S113101084E090E02AC0FC01EE0FFF1FE858FF4F68
S1131020E491F0E09F01220F331FE20FF31FE75416
S1131030FE4F20910B0130910C0140910D01208352
S113104031834283FC017796EE0FFF1FE858FF4F70
S1131050E491F0E0BF01660F771FE60FF71FE75436
S1131060FE4F2083318342830196863091059CF2A2
S113107085E090E026C0FC01EE0FFF1FE858FF4F0B
S1131080E491F0E09F01220F331FE20FF31FE754B6
S1131090FE4F20910E0130910F01409110012083E9
S11310A031834283EAE9F0E0E491F0E0BF01660FA6
S11310B0771FE60FF71FE754FE4F208331834283E7
S11310C0019688309105BCF289E090E053C0FC01A0
S11310D0EE0FFF1FE858FF4FE491F0E09F01220F4D
S11310E0331FE20FF31FE754FE4F20910E0130919E
S11310F00F0140911001208331834283E6EAF0E03E
S1131100E491F0E0BF01660F771FE60FF71FE75485
S1131110FE4F2083318342838B30910554F5FC01CB
S11311203C96EE0FFF1FE858FF4FE491F0E09F015B
S1131130220F331FE20FF31FE754FE4F20911101DA
S11311403091120140911301208331834283FC01C9
S11311507896EE0FFF1FE858FF4FE491F0E0BF01CF
S1131160660F771FE60FF71FE754FE4F2083318386
S1131170428301968C3091050CF4A9CF6CE271E0A6
S113118089EB91E00E94CB010895E091AB018E2F91
S113119090E08830910508F06CC0FC01EC5CFF4FD6
S11311A00C94C60E2FEF89E698E1215080409040C0
S11311B0E1F700C0000084E60E94950608952FEF31
S11311C088EF95E1215080409040E1F700C0000095
S11311D084E60E94950608952FEF86E191E121505F
S11311E080409040E1F700C0000084E60E9495062C
S11311F008952FEF85EA9EE0215080409040E1F76A
S113120000C0000084E60E94950608952FEF84E351
S11312109CE0215080409040E1F700C0000084E64B
S11312200E94950608952FEF83EC99E021508040A9
S11312309040E1F700C0000084E60E9495060895FE
S11312402FEF82E597E0215080409040E1F700C005
S1131250000084E60E94950608952FEF81EE94E045
S1131260215080409040E1F700C0000084E60E94D5
S113127095060895CF93DF9317C0CEE3D5E0815050
S11312808A830E9424048A81882329F0CE010E9443
S11312906803892B49F00E94F50210923E050E94D2
S11312A024040E94110504C0809140058111E5CFFA
S11312B0DF91CF910895C0E080E01EC0EC2FF0E0F4
S11312C03196E80FF11DEC54FF4FEE0FFF1FE85865
S11312D0FF4FE491F0E09F01220F331FE20FF31F51
S11312E0E754FE4F209117013091180140911901E4
S11312F02083318342838F5F853000F38C2F90E00D
S1131300FC01EC54FF4FEE0FFF1FE858FF4FE49130
S1131310F0E09F01220F331FE20FF31FE754FE4F4B
S1131320C090A501D090A601E090A701C082D1820F
S1131330E28248E050E0481B590BFA01E855FF4FA0
S1131340EE0FFF1FE858FF4FE491F0E09F01220FDA
S1131350331FE20FF31FE754FE4FA2E0B1E01F96E4
S11313606D907D908C90519760827182828229E089
S113137030E0281B390BF901E855FF4FEE0FFF1F32
S1131380E858FF4FE491F0E0BF01660F771FE60FC6
S1131390F71FE754FE4FC082D182E282FC01E1567E
S11313A0FF4FEE0FFF1FE858FF4FE491F0E0BF013D
S11313B0660F771FE60FF71FE754FE4F55962D90E3
S11313C03D904C90208231824282FC01E256FF4FD4
S11313D0EE0FFF1FE858FF4FE491F0E0BF01660FE6
S11313E0771FE60FF71FE754FE4FC082D182E282D7
S11313F0FA01E057FF4FEE0FFF1FE858FF4FE4914B
S1131400F0E0AF01440F551FE40FF51FE754FE4F02
S1131410608271828282F901E057FF4FEE0FFF1F55
S1131420E858FF4FE491F0E09F01220F331FE20FD1
S1131430F31FE754FE4FC082D182E282FC01E957D8
S1131440FF4FEE0FFF1FE858FF4FE491F0E09F01BC
S1131450220F331FE20FF31FE754FE4F2082318225
S11314604282FC01EA57FF4FEE0FFF1FE858FF4F7F
S1131470E491F0E09F01220F331FE20FF31FE754C2
S1131480FE4FC082D182E28240E050E046C09C011F
S113149023503109240F351FF901EC54FF4FEE0F8F
S11314A0FF1FE858FF4FE491F0E0BF01660F771F7C
S11314B0E60FF71FE754FE4FC0900801D0900901D2
S11314C0E0900A01C082D182E282F901E456FF4F22
S11314D0EE0FFF1FE858FF4FE491F0E0BF01660FE5
S11314E0771FE60FF71FE754FE4FC082D182E282D6
S11314F0F901EC57FF4FEE0FFF1FE858FF4FE4913F
S1131500F0E09F01220F331FE20FF31FE754FE4F59
S1131510C082D182E2824F5F5F4F433051050CF4A9
S1131520B6CFFC01E055FF4FEE0FFF1FE858FF4F09
S1131530E491F0E09F01220F331FE20FF31FE75401
S1131540FE4FC090A501D090A601E090A701C082F3
S1131550D182E282FC01E856FF4FEE0FFF1FE858EC
S1131560FF4FE491F0E09F01220F331FE20FF31FBE
S1131570E754FE4FC082D182E282FC01E058FF4F63
S1131580EE0FFF1FE858FF4FE491F0E09F01220F98
S1131590331FE20FF31FE754FE4FC082D182E28271
S11315A04CE050E0481B590BFA01E855FF4FEE0F91
S11315B0FF1FE858FF4FE491F0E09F01220F331F13
S11315C0E20FF31FE754FE4F60900E0170900F017D
S11315D0809010016082718282822BE030E0281BAF
S11315E0390BF901E855FF4FEE0FFF1FE858FF4F85
S11315F0E491F0E0BF01660F771FE60FF71FE75491
S1131600FE4FC082D182E282FA01E057FF4FEE0F13
S1131610FF1FE858FF4FE491F0E0AF01440F551F5E
S1131620E40FF51FE754FE4F608271828282F90154
S1131630E057FF4FEE0FFF1FE858FF4FE491F0E033
S11316409F01220F331FE20FF31FE754FE4FC082A6
S1131650D182E28220E01DC0FC013997E20FF11D26
S1131660EC54FF4FEE0FFF1FE858FF4FE491F0E0FA
S1131670AF01440F551FE40FF51FE754FE4FC09010
S11316801701D0901801E0901901C082D182E28242
S11316902F5F253008F3FC01E655FF4FEE0FFF1FC7
S11316A0E858FF4FE491F0E09F01220F331FE20F4F
S11316B0F31FE754FE4FC090A501D090A601E0901F
S11316C0A701C082D182E28242E150E0481B590B5B
S11316D0FA01E855FF4FEE0FFF1FE858FF4FE49162
S11316E0F0E09F01220F331FE20FF31FE754FE4F78
S11316F0A2E0B1E01F966D907D908C90519760822E
S11317007182828223E130E0281B390BF901E8550C
S1131710FF4FEE0FFF1FE858FF4FE491F0E0BF01C9
S1131720660F771FE60FF71FE754FE4FC082D18282
S1131730E282FC01EB56FF4FEE0FFF1FE858FF4F0C
S1131740E491F0E0BF01660F771FE60FF71FE7543F
S1131750FE4F55962D903D904C90208231824282CE
S1131760FC01EC56FF4FEE0FFF1FE858FF4FE491CA
S1131770F0E0BF01660F771FE60FF71FE754FE4F37
S1131780C082D182E282FA01E057FF4FEE0FFF1FC1
S1131790E858FF4FE491F0E0AF01440F551FE40F08
S11317A0F51FE754FE4F608271828282F901E0578F
S11317B0FF4FEE0FFF1FE858FF4FE491F0E09F0149
S11317C0220F331FE20FF31FE754FE4FC082D18272
S11317D0E282FC01E358FF4FEE0FFF1FE858FF4F72
S11317E0E491F0E09F01220F331FE20FF31FE7544F
S11317F0FE4F208231824282FC01E458FF4FEE0FFB
S1131800FF1FE858FF4FE491F0E09F01220F331FC0
S1131810E20FF31FE754FE4FC082D182E28260E000
S113182035C0AC014D505109460F511DFA01EC541D
S1131830FF4FEE0FFF1FE858FF4F249130E0F901EE
S1131840EE0FFF1F2E0F3F1FF901E754FE4FC0900C
S11318500B01D0900C01E0900D01C082D182E28294
S1131860623098F4FA01E456FF4FEE0FFF1FE85878
S1131870FF4FE491F0E09F01220F331FE20FF31FAB
S1131880E754FE4FC082D182E2826F5F633048F238
S1131890FC01EA55FF4FEE0FFF1FE858FF4FE4919C
S11318A0F0E09F01220F331FE20FF31FE754FE4FB6
S11318B02091A5013091A6014091A7012083318395
S11318C04283FC01E257FF4FEE0FFF1FE858FF4F22
S11318D0E491F0E0BF01660F771FE60FF71FE754AE
S11318E0FE4F208331834283E8E1F0E0E81BF90BEB
S11318F0E855FF4FEE0FFF1FE858FF4FE491F0E06B
S1131900BF01660F771FE60FF71FE754FE4FA2E0F3
S1131910B1E05296CD90DD90EC905497C082D18284
S1131920E282E9E1F0E0E81BF90BE855FF4FEE0F26
S1131930FF1FE858FF4FE491F0E0BF01660F771FE7
S1131940E60FF71FE754FE4F208331834283E6E11D
S1131950F0E0E81BF90BE855FF4FEE0FFF1FE858C6
S1131960FF4FE491F0E0BF01660F771FE60FF71F0A
S1131970E754FE4FC082D182E282E7E1F0E0E81B47
S1131980F90BE855FF4FEE0FFF1FE858FF4FE491A6
S1131990F0E0BF01660F771FE60FF71FE754FE4F15
S11319A0208331834283FC01EA58FF4FEE0FFF1F6F
S11319B0E858FF4FE491F0E0BF01660F771FE60F90
S11319C0F71FE754FE4F1996CD90DD90EC90C0823E
S11319D0D182E282FC01EB58FF4FEE0FFF1FE85863
S11319E0FF4FE491F0E0BF01660F771FE60FF71F8A
S11319F0E754FE4F208331834283FC01E758FF4FB5
S1131A00EE0FFF1FE858FF4FE491F0E0BF01660FAF
S1131A10771FE60FF71FE754FE4FC082D182E282A0
S1131A20FC01E858FF4FEE0FFF1FE858FF4FE49109
S1131A30F0E0BF01660F771FE60FF71FE754FE4F74
S1131A4020833183428340E0A0C040FF50C06FE058
S1131A5070E0641B7109EBE1F0E0DF01A81BB90B36
S1131A608B01000F111FF801E60FF71FEE0FFF1F88
S1131A70EE0FFF1FEA0FFB1FEE0FFF1FE858FF4F8B
S1131A80E4912E2F30E0D901AA0FBB1F2A0F3B1F70
S1131A90D901A754BE4FC0900201D0900301E09039
S1131AA00401CD92DD92EC92F801E60FF71FEE0FE0
S1131AB0FF1FEE0FFF1F9C01245E3F4FE20FF31F39
S1131AC0EE0FFF1FE858FF4FE491F0E09F01220F53
S1131AD0331FE20FF31FE754FE4FC090A501D090CF
S1131AE0A601E090A701C082D182E2824DC06FE0DE
S1131AF070E0641B71098B01000F111FF801E60FE0
S1131B00F71FEE0FFF1FEE0FFF1F9C01205131093D
S1131B10E20FF31FEE0FFF1FE858FF4FE4912E2F43
S1131B2030E0D901AA0FBB1F2A0F3B1FD901A754CC
S1131B30BE4FC0900201D0900301E0900401CD9209
S1131B40DD92EC92F801E60FF71FEE0FFF1FEE0F88
S1131B50FF1F9C0121513109E20FF31FEE0FFF1FFC
S1131B60E858FF4FE491F0E09F01220F331FE20F8A
S1131B70F31FE754FE4FC090A501D090A601E0905A
S1131B80A701C082D182E2824F5F453008F45DCF65
S1131B9040E050E046C09C0124513109240F351F18
S1131BA0F901EC54FF4FEE0FFF1FE858FF4FE4918B
S1131BB0F0E0BF01660F771FE60FF71FE754FE4FF3
S1131BC0C0901A01D0901B01E0901C01C082D18208
S1131BD0E282F901E456FF4FEE0FFF1FE858FF4F72
S1131BE0E491F0E0BF01660F771FE60FF71FE7549B
S1131BF0FE4FC082D182E282F901EC57FF4FEE0F13
S1131C00FF1FE858FF4FE491F0E09F01220F331FBC
S1131C10E20FF31FE754FE4FC082D182E2824F5F8E
S1131C205F4F433051050CF4B6CFFC01E156FF4F32
S1131C30EE0FFF1FE858FF4FE491F0E09F01220FE1
S1131C40331FE20FF31FE754FE4F2091A50130919B
S1131C50A6014091A701208331834283FC01E95707
S1131C60FF4FEE0FFF1FE858FF4FE491F0E0BF0174
S1131C70660F771FE60FF71FE754FE4F208331836B
S1131C804283FC01E159FF4FEE0FFF1FE858FF4F5D
S1131C90E491F0E0BF01660F771FE60FF71FE754EA
S1131CA0FE4F208331834283EDE1F0E0E81BF90B22
S1131CB0E855FF4FEE0FFF1FE858FF4FE491F0E0A7
S1131CC0BF01660F771FE60FF71FE754FE4FC09062
S1131CD00E01D0900F01E0901001C082D182E28207
S1131CE0ECE1F0E0E81BF90BE855FF4FEE0FFF1FA6
S1131CF0E858FF4FE491F0E0BF01660F771FE60F4D
S1131D00F71FE754FE4F208331834283EFE1F0E075
S1131D10E81BF90BE057FF4FEE0FFF1FE858FF4F8A
S1131D20E491F0E0BF01660F771FE60FF71FE75459
S1131D30FE4FC082D182E282EEE1F0E0E81BF90BB3
S1131D40E057FF4FEE0FFF1FE858FF4FE491F0E01C
S1131D50CF01880F991FE80FF91FE754FE4F208326
S1131D6031834283CF5FCF3109F4C0E06CE271E08C
S1131D7089EB91E00E94CB012FEF84E39CE021509A
S1131D8080409040E1F700C0000096CAEE0FFF1FAC
S1131D900590F491E02D0994ABE0B0E0E2EDFEE0B3
S1131DA00C945D116C017B018A01FC01178216827F
S1131DB0838181FFCCC1CE0101963C01F601938160
S1131DC0F70193FD859193FF81917F01882309F4A5
S1131DD0BAC1853239F493FD859193FF81917F01D6
S1131DE0853229F4B60190E00E94C310E7CF912C0C
S1131DF0212C312CFFE1F315D8F08B3279F038F433
S1131E00803279F08332A1F4232D20611DC08D32FC
S1131E1061F0803369F4232D216016C0832D826024
S1131E20382EE32DE4603E2E2AC0F32DF8601DC049
S1131E3037FC2DC020ED280F2A3040F08E32B9F443
S1131E4036FC81C1232D2064322E19C036FE06C013
S1131E508AE0989E200D1124922E11C0EAE02E9E55
S1131E60200D1124222EF32DF0623F2E08C08C3653
S1131E7021F4832D8068382E02C0883641F4F7019E
S1131E8093FD859193FF81917F018111B3CF982FA9
S1131E909F7D9554933028F40C5F1F4F9FE39983E3
S1131EA00DC0833631F0833771F0833509F059C0A2
S1131EB021C0F801808189830E5F1F4F8824839499
S1131EC0912C530113C02801F2E04F0E511CF8016C
S1131ED0A080B18036FE03C0692D70E002C06FEFB0
S1131EE07FEFC5010E94B8104C018201F32DFF77EA
S1131EF03F2E16C0280122E0420E511CF801A0809A
S1131F00B18036FE03C0692D70E002C06FEF7FEF31
S1131F10C5010E94AD104C01F32DF0683F2E8201E3
S1131F2033FC1BC0822D90E088169906B0F4B601EC
S1131F3080E290E00E94C3102A94F4CFF50137FCAC
S1131F40859137FE81915F01B60190E00E94C31034
S1131F5021102A9421E0821A91088114910471F7C6
S1131F60E8C0843611F0893641F5F80137FE07C020
S1131F7060817181828193810C5F1F4F08C06081F1
S1131F807181072E000C880B990B0E5F1F4FF32DE8
S1131F90FF763F2E97FF09C09095809570956195C7
S1131FA07F4F8F4F9F4FF0683F2E2AE030E0A30110
S1131FB00E94FF10882E861845C0853731F4232DE2
S1131FC02F7EB22E2AE030E025C0932D997FB92EC2
S1131FD08F36C1F018F4883579F0B5C0803719F020
S1131FE0883721F0B0C0E92FE061BE2EB4FE0DC0E9
S1131FF0FB2DF460BF2E09C034FE0AC0292F2660D1
S1132000B22E06C028E030E005C020E130E002C076
S113201020E132E0F801B7FE07C06081718182815E
S113202093810C5F1F4F06C06081718180E090E056
S11320300E5F1F4FA3010E94FF10882E8618FB2DF0
S1132040FF773F2E36FE0DC0232D2E7FA22E89143E
S113205058F434FE0BC032FC09C0832D8E7EA82EAA
S113206005C0B82CA32C03C0B82C01C0B92CA4FE05
S11320700FC0FE01E80DF11D8081803321F49A2DFB
S1132080997EA92E09C0A2FE06C0B394B39404C0DD
S11320908A2D867809F0B394A3FC11C0A0FE06C073
S11320A0B21488F4280C922C9B180EC0B21460F45D
S11320B0B60180E290E00E94C310B394F7CFB2144B
S11320C018F42B1802C0982C212CA4FE10C0B601C1
S11320D080E390E00E94C310A2FE17C0A1FC03C0DD
S11320E088E790E002C088E590E0B6010CC08A2D34
S11320F0867859F0A1FE02C08BE201C080E2A7FC01
S11321008DE2B60190E00E94C310891438F4B60140
S113211080E390E00E94C3109A94F7CF8A94F3016D
S1132120E80DF11D8081B60190E00E94C31081107A
S1132130F5CF222009F442CEB60180E290E00E945D
S1132140C3102A94F6CFF6018681978102C08FEFDF
S11321509FEF2B96E2E10C947911FC0105906150FC
S113216070400110D8F7809590958E0F9F1F0895A9
S1132170FC016150704001900110D8F78095909552
S11321808E0F9F1F08950F931F93CF93DF93FB012F
S1132190238121FD03C08FEF9FEF2CC022FF16C0C7
S11321A046815781248135814217530744F4A08125
S11321B0B1819D012F5F3F4F318320838C93268112
S11321C037812F5F3F4F3783268314C08B01EC0187
S11321D0FB010084F185E02D0995892BE1F6D801F6
S11321E016968D919C911797019617969C938E93B2
S11321F01697CE01DF91CF911F910F910895FA01A7
S1132200AA27283051F1203181F1E8946F936E7F31
S11322106E5F7F4F8F4F9F4FAF4FB1E03ED0B4E022
S11322203CD0670F781F891F9A1FA11D680F791F63
S11322308A1F911DA11D6A0F711D811D911DA11D74
S113224020D009F468943F912AE0269F1124301984
S1132250305D3193DEF6CF010895462F4770405D1F
S11322604193B3E00FD0C9F7F6CF462F4F70405DCE
S11322704A3318F0495D31FD4052419302D0A9F729
S1132280EACFB4E0A6959795879577956795BA9523
S1132290C9F700976105710508959B01AC010A2EE9
S11322A006945795479537952795BA95C9F7620FC0
S11322B0731F841F951FA01D08952F923F924F9264
S11322C05F926F927F928F929F92AF92BF92CF92C2
S11322D0DF92EF92FF920F931F93CF93DF93CDB7CB
S11322E0DEB7CA1BDB0B0FB6F894DEBF0FBECDBF43
S11322F009942A88398848885F846E847D848C8414
S11323009B84AA84B984C884DF80EE80FD800C811C
S11323101B81AA81B981CE0FD11D0FB6F894DEBFFF
S10F23200FBECDBFED010895F894FFCF6F
S113232C0100070707000C00050C000C0C000C0046
S113233C0005000C00000C00050C000C0503080C37
S113234C0102010100000101000000000000000076
S113235C0000000401000000010000000100000066
S113236C0100000001030101010000000100000054
S113237C0000000000000103000001000101010045
S113238C0000000000000000010301010100000135
S113239C0000000000000000000001030001010027
S11323AC0101000000000000000000000103010115
S11323BC000000010100000000000000000001000A
S9030000FC
