S00E00005465747269732E737265639B
S11300000C9434000C9451000C9451000C94510045
S11300100C9451000C9451000C9451000C94510018
S11300200C9451000C9451000C9451000C94510008
S11300300C9451000C9451000C9451000C945100F8
S11300400C9451000C9451000C9451000C945100E8
S11300500C9451000C9451000C9451000C945100D8
S11300600C9451000C94510011241FBECFEFD8E022
S1130070DEBFCDBF11E0A0E0B1E0EEEEF8E002C0DB
S113008005900D92A030B107D9F727E0A0E0B1E0C8
S113009001C01D92AD33B207E1F70E9473040C94C2
S11300A075040C940000FC019B01220F331F620FA6
S11300B0731F84B1826084B9A5B1AD7F55B152601C
S11300C0BFB7F89410C09F012F5F3F4F408168E095
S11300D055B947FFA5B9440F000000C0A5B96A95FA
S11300E0B9F7BC01F901CB010197672B61F7BFBFD9
S11300F085E88A95F1F7000008958CE291E00BC041
S11301000197FC01EE0FFF1FE80FF91FE25DFE4FA0
S1130110118210821282009799F76CE271E08EE2EC
S113012091E00E94530085E88A95F1F70000089554
S113013040E050E035C0BA01660F771FCB01880F4D
S1130140991F880F991F880F991F860F971F820F79
S1130150931FFC01EE0FFF1F8E0F9F1FFC01E25D3A
S1130160FE4FD901AA0FBB1FA20FB31F66E3649F02
S1130170C001659F900D1124A80FB91FAE54BB4F49
S11301808D919D91AC9180839183A2832F5F3F4F8A
S113019002C020E030E02C3031056CF24F5F5F4F3D
S11301A042315105B4F385E88A95F1F700000895CA
S11301B0E0E0F1E085E28183808382838FE38483BE
S11301C013821582878399E19683108692878187AB
S11301D01386158684871686108A9787818B138ADF
S11301E0128A848B968B818F99E2948F9FE0958BF2
S11301F0878BEAE3F7E0118210821282C0E020E0EC
S113020017C08C2F90E00196820F911DFC01EE0F18
S1130210FF1F8E0F9F1FFC01E452F84F80911501C0
S113022090911601A091170180839183A2832F5F7F
S1130230253038F38C2F90E0FC01EE0FFF1FE80F00
S1130240F91FE452F84FC0903A07D0903B07E09072
S11302503C07C082D182E28248E050E0481B590B3F
S11302609A01220F331F420F531F4E545B4FDA0182
S1130270AC50BD4FE0E0F1E06784708881886D92F6
S11302807D928C9229E030E0281B390BB901660F6E
S1130290771F260F371F2E543B4FD901AC50BD4F4B
S11302A0CD92DD92EC92BC016D5F7F4FDB01AA0F12
S11302B0BB1F6A0F7B1F6E547B4FDB01A254BD4FE3
S11302C02588368847882D923D924C92FC013296BF
S11302D0DF01AA0FBB1FEA0FFB1FDF01AE54BB4FA8
S11302E0FD01E254FD4FC082D182E282FA01E85757
S11302F0FD4F608271828282F901E857FD4FC0820E
S1130300D182E282FB01EE5AFD4F20823182428289
S1130310FD01EE5AFD4FC082D182E28240E050E0FE
S113032024C09C0123503109240F351FB901660FE5
S1130330771F260F371F2E543B4FF901E65DFC4F04
S1130340C0900601D0900701E0900801C082D182DC
S1130350E282EC56F109C082D182E282EC56F109C4
S1130360C082D182E2824F5F5F4F43305105CCF2AD
S11303709C0124503109A901440F551F240F351F36
S11303802E543B4FF901E65DFC4FC0903A07D090E4
S11303903B07E0903C07C082D182E282EC56F1092F
S11303A0C082D182E282EC56F109C082D182E2821B
S11303B04CE050E0481B590B9A01220F331F420FA7
S11303C0531F4E545B4FFA01EC50FD4F60900C01EB
S11303D070900D0180900E016082718282822BE008
S11303E030E0281B390BB901660F771F260F371F22
S11303F02E543B4FF901EC50FD4FC082D182E28272
S1130400FA01E857FD4F608271828282F901E85750
S1130410FD4FC082D182E28240E017C09C01295086
S11304203109240F311DF901EE0FFF1F2E0F3F1F5D
S1130430F901E452F84FC0901501D0901601E090F4
S11304401701C082D182E2824F5F453038F39C01AC
S11304502A503109F901EE0FFF1F2E0F3F1FF9013A
S1130460E452F84FC0903A07D0903B07E0903C0725
S1130470C082D182E28242E150E0481B590B9A01CA
S1130480220F331F420F531F4E545B4FDA01AC50FF
S1130490BD4FE0E0F1E06784708881886D927D92C1
S11304A08C9223E130E0281B390BB901660F771FCA
S11304B0260F371F2E543B4FD901AC50BD4FCD9260
S11304C0DD92EC92BC0167507109DB01AA0FBB1FDE
S11304D06A0F7B1F6E547B4FDB01A254BD4F2588EE
S11304E0368847882D923D924C92FC013897DF0163
S11304F0AA0FBB1FEA0FFB1FDF01AE54BB4FFD0168
S1130500E254FD4FC082D182E282FA01E857FD4FE6
S1130510608271828282F901E857FD4FC082D182E4
S1130520E282FB01EE5AFD4F208231824282FD01BC
S1130530EE5AFD4FC082D182E28240E023C09C018A
S11305402D503109240F311DF901EE0FFF1FE20F69
S1130550F31FE452F84FC0900901D0900A01E090D3
S11305600B01C082D182E282423058F4F901EE0FCD
S1130570FF1F2E0F3F1FF901E059F84FC082D182AF
S1130580E2824F5F4330D8F29C012E503109A90119
S1130590440F551F240F351F2E543B4FF901E65DC0
S11305A0FC4FC0903A07D0903B07E0903C07C082D4
S11305B0D182E282EC56F109C082D182E28248E122
S11305C050E0481B590BFA01EE0FFF1F4E0F5F1F3F
S11305D0FA01EA55F84FA0E0B1E052966D907D9093
S11305E08C90549760827182828249E150E0481B6A
S11305F0590BFA01EE0FFF1F4E0F5F1FFA01EA5568
S1130600F84FC082D182E28246E150E0481B590B88
S1130610FA01EE0FFF1F4E0F5F1FFA01EA55F84F64
S113062060827182828247E150E0481B590BFA01D3
S1130630EE0FFF1F4E0F5F1FFA01EA55F84FC082FD
S1130640D182E282F901EE5AFD4F19966D907D90A8
S11306508C906082718282829C012F503109F90151
S1130660EE0FFF1F2E0F3F1FF901EC5FF84FC08202
S1130670D182E2829C012B503109F901EE0FFF1F58
S11306802E0F3F1FF901EC5FF84F60827182828266
S11306909C012C503109F901EE0FFF1F2E0F3F1F53
S11306A0F901EC5FF84FC082D182E28240E06DC074
S11306B040FF36C06FE070E0641B71092BE130E04D
S11306C0281B390BF901EE0FFF1FE20FF31F56E34E
S11306D0569F9001579F300D1124E20FF31FEE54E3
S11306E0FB4FC0900001D0900101E0900201C08254
S11306F0D182E282FC017C96BF01660F771FE60F70
S1130700F71F2E0F3F1FF901EE54FB4FC0903A071D
S1130710D0903B07E0903C07C082D182E28234C093
S11307206FE070E0641B71099C0120513109F901EB
S1130730EE0FFF1FE20FF31F56E3569F9001579FE2
S1130740300D1124E20FF31FEE54FB4FC090000153
S1130750D0900101E0900201C082D182E282FC01CA
S11307607197BF01660F771FE60FF71F2E0F3F1F0C
S1130770F901EE54FB4FC0903A07D0903B07E0904C
S11307803C07C082D182E2824F5F453008F490CFAB
S113079040E050E024C09C0124513109240F351F4E
S11307A0B901660F771F260F371F2E543B4FF901EF
S11307B0E65DFC4FC0901801D0901901E0901A0139
S11307C0C082D182E282EC56F109C082D182E282F7
S11307D0EC56F109C082D182E2824F5F5F4F433011
S11307E05105CCF29C0125513109A901440F551F33
S11307F0240F351F2E543B4FF901E65DFC4FC0908A
S11308003A07D0903B07E0903C07C082D182E28255
S1130810EC56F109C082D182E282EC56F109C08221
S1130820D182E2822DE130E0281B390BF901EE0F71
S1130830FF1F2E0F3F1FF901EA55F84F60900C017E
S113084070900D0180900E016082718282822CE191
S113085030E0281B390BF901EE0FFF1F2E0F3F1F4D
S1130860F901EA55F84FC082D182E2822FE130E0EB
S1130870281B390BF901EE0FFF1F2E0F3F1FF90143
S1130880E65CF84F6082718282822EE130E0A90139
S1130890481B590BCA01FA01EE0FFF1F8E0F9F1F51
S11308A0FC01E65CF84FC082D182E282CF5FCA329B
S11308B009F4C0E00E9498006CE271E08EE291E0DD
S11308C00E9453005FEF89E698E1515080409040C8
S11308D0E1F700C0000093CC84B1826084B90E9427
S11108E07D000E94D8000E946C04F894FFCFA3
S9030000FC
