S01100004E65775465747269732E737265636E
S11300000C94A4010C94C1010C94C1010C94C10181
S11300100C94C1010C94C1010C94C1010C94C10154
S11300200C94C1010C94C1010C94C1010C94C10144
S11300300C94C1010C94C1010C944D020C94C101A7
S11300400C94C1010C94C1010C941F020C94C101C5
S11300500C94C1010C94C1010C94C1010C94C10114
S11300600C94C1010C94C1010000010002000300C2
S11300700400050006000700080009000A000B0040
S113008017001600150014001300120011001000D0
S11300900F000E000D000C00180019001A001B00C0
S11300A01C001D001E001F00200021002200230050
S11300B02F002E002D002C002B002A0029002800E0
S11300C027002600250024003000310032003300D0
S11300D03400350036003700380039003A003B0060
S11300E047004600450044004300420041004000F0
S11300F03F003E003D003C00480049004A004B00E0
S11301004C004D004E004F0050005100520053006F
S11301105F005E005D005C005B005A0059005800FF
S113012057005600550054006000610062006300EF
S11301306400650066006700680069006A006B007F
S1130140770076007500740073007200710070000F
S11301506F006E006D006C00780079007A007B00FF
S11301607C007D007E007F0080008100820083008F
S11301708F008E008D008C008B008A00890088001F
S1130180870086008500840090009100920093000F
S11301909400950096009700980099009A009B009F
S11301A0A700A600A500A400A300A200A100A0002F
S11301B09F009E009D009C00A800A900AA00AB001F
S11301C0AC00AD00AE00AF00B000B100B200B300AF
S11301D0BF00BE00BD00BC00BB00BA00B900B8003F
S11301E0B700B600B500B400C000C100C200C3002F
S11301F0C400C500C600C700C800C900CA00CB00BF
S1130200D700D600D500D400D300D200D100D0004E
S1130210CF00CE00CD00CC00D800D900DA00DB003E
S1130220DC00DD00DE00DF00E000E100E200E300CE
S1130230EF00EE00ED00EC00EB00EA00E900E8005E
S1130240E700E600E500E400F000F100F200F3004E
S1130250F400F500F600F700F800F900FA00FB00DE
S11302600701060105010401030102010101000166
S1130270FF00FE00FD00FC00080109010A010B015A
S11302800C010D010E010F011001110112011301E6
S11302901F011E011D011C011B011A011901180176
S11302A01701160115011401200121012201230166
S11302B02401250126012701280129012A012B01F6
S11302C00400000007000300060002000500090006
S11302D008000100080009000200040000000100F9
S11302E006000700050003000800010003000200E7
S11302F005000700040000000900060000000500D6
S113030009000800020001000700060003000400C1
S113031004000000030005000100060003000100C2
S113032004000300020000000600050000000500B0
S113033002000600010003000400000006000100A2
S1130340030005000200040011241FBECFEFD8E013
S1130350DEBFCDBF12E0A0E0B1E0E0E0F3E102C017
S113036005900D92A837B107D9F728E0A8E7B2E0C5
S113037001C01D92AE33B207E1F70E94B8020C949B
S11303807E090C940000FC019B01220F331F620FB5
S1130390731F8AB180628AB9ABB1AF7D5BB1506221
S11303A0BFB7F89410C09F012F5F3F4F408168E0B2
S11303B05BB947FFABB9440F000000C0ABB96A9505
S11303C0B9F7BC01F901CB010197672B61F7BFBFF6
S11303D085E88A95F1F70000089584B1806284B9B4
S11303E00E9482070E94AB072FE788E391E0215027
S11303F080409040E1F700C0000084B1826084B97D
S113040082E085B997E297BD84BD95EC95BDEEE693
S1130410F0E09081926090831092C50097E69093EB
S1130420C4008093C000E1ECF0E08081886980839F
S1130430E2ECF0E0808186608083789408951F92D6
S11304400F920FB60F9211248F93AF93BF93EF9334
S1130450FF938091C000E8E7F2E081838181887195
S113046029F0EAE7F2E08081826080838091C6000F
S1130470E8E7F2E08083AAE7B2E08C9181608C9394
S1130480808180939302FF91EF91BF91AF918F91FF
S11304900F900FBE0F901F9018951F920F920FB6DA
S11304A00F9211242F933F934F935F936F937F93F6
S11304B08F939F93AF93BF93EF93FF9380917B02AE
S11304C090917C02019690937C0280937B028091B0
S11304D094029091950201969093950280939402D0
S11304E080917B0290917C0284369105C1F4109234
S11304F07C0210927B02809100019091010101978E
S113050031F415B8109201011092000108C082E084
S113051085B981E090E090930101809300012091DE
S11305209402309195028091750290917602281779
S1130530390769F480917D0290917E02019739F424
S113054084E60E9446061092950210929402FF914E
S1130550EF91BF91AF919F918F917F916F915F9137
S11305604F913F912F910F900FBE0F901F901895B0
S11305700E94ED01809193028136A1F08091930253
S1130580833781F080919302843661F080919302E5
S11305908A3641F0809193028B3621F08091930248
S11305A08C3641F781E090E090937E0280937D0247
S11305B00E94820780E3809393020E94C804809182
S11305C09302843689F028F4813651F08236D1F0D2
S11305D020C08B36A1F0833759F08A36D1F40CC091
S11305E08CE60E94460615C082E70E94460611C0AA
S11305F084E60E9446060DC00E9468050AC00E9457
S11306004B0907C01092740280E2809393020E9407
S11306109E070E94ED0680E2809393022FE788E311
S113062091E0215080409040E1F700C000008091AB
S11306308402882321F288EC90E0909376028093E0
S113064075020E9482070E9467071092840210922A
S11306507E0210927D028CCFCF93DF93B0E04BC02B
S1130660EBE1F6E081818A0F22812B0F8C30E0F5DB
S11306702431D0F54B2F50E06A2F70E0FA01EE0FD1
S1130680FF1FEE0FFF1FE55EF94FE60FF71FC58151
S1130690CC2351F130E090E0DDE0D29FF001D39F14
S11306A0F00D1124E65BF94FE80FF91FC083C091E8
S11306B03006F901EE0FFF1F2E0F3F1F220F331FCD
S11306C0220F331F265B394F820F931FFC01EC5F0F
S11306D0FE4FC083440F551F440F551F455E594FAD
S11306E0FA01E60FF71F1582AF5F01C0A0E0A43046
S11306F008F4B6CFBF5FB430C8F3109285021092ED
S1130700860285E88A95F1F70000DF91CF9108957C
S1130710DC0130E019C0E32FF0E0EE0FFF1FEE0F15
S1130720FF1FEA0FFB1FE90FF11D2581222331F082
S113073011962C911197290F2C3058F49F5F01C00A
S113074090E0943040F33F5F3430D0F380E090E0A9
S1130750089581E090E00895DC0130E027C011960F
S11307608C911197890F1296EC911297232F2E0FCB
S1130770E32FF0E0EE0FFF1FEE0FFF1FEA0FFB1F4A
S1130780E90FF11D4581413059F44DE0249FF001FA
S11307901124E65BF94FE80FF11D8081813059F097
S11307A09F5F01C090E09430D0F23F5F3430D0F3CB
S11307B080E090E0089581E090E00895CF92DF9288
S11307C0EF9240E050E0D3C020911B06222359F160
S11307D020911C0630E0421753073CF160911F063C
S11307E070E0F901E60FF71F4E175F0704F5E0917B
S11307F01D06F0E08E179F07E4F06E0F7F1F86172B
S11308009707CCF4BC016E1B7F0BFA01E21BF30BC0
S11308109B01220F331F220F331F255E394FE20F36
S1130820F31F358109C030E007C030E005C030E077
S113083003C030E001C030E02DE0289FF001299F83
S1130840F00D1124E65BF94FE40FF51F20812223FC
S1130850B9F19C01220F331FF901E80FF91FEE0FC4
S1130860FF1FEE0FFF1FE40FF51FEE0FFF1FE859E8
S1130870FF4FE491F0E0D901A80FB91FAA0FBB1FE5
S1130880AA0FBB1FA65BB94FA40FB51FAC5FBE4F29
S11308902C9130E0BF01660F771FE60FF71FEA5671
S11308A0FD4FD901AA0FBB1F2A0F3B1FD901AE5F11
S11308B0BE4FCD90DD90EC90C082D182E2824DC0DB
S11308C0332351F1FC01EE0FFF1FE80FF91FEE0F68
S11308D0FF1FEE0FFF1FE40FF51FEE0FFF1FE85978
S11308E0FF4FE491F0E02091300630E0BF01660F45
S11308F0771FE60FF71FEA56FD4FD901AA0FBB1F5A
S11309002A0F3B1FD901AE5FBE4FCD90DD90EC9016
S1130910C082D182E28221C0FC01EE0FFF1FE80FEA
S1130920F91FEE0FFF1FEE0FFF1FE40FF51FEE0F71
S1130930FF1FE859FF4FE491F0E09F01220F331F9E
S1130940E20FF31FEA56FD4FC0907F02D090800261
S1130950E0908102C082D182E282019602C080E0EE
S113096090E0843191050CF42FCF4F5F5F4F4C30F2
S11309705105ACF36CE271E086E992E00E94C30198
S113098085E88A95F1F70000EF90DF90CF90089505
S1130990CF93DF93CDB7DEB766970FB6F894DEBF7B
S11309A00FBECDBF90918802E92FF0E0EE0FFF1F3C
S11309B0E05FFC4F44914093830280918702E82FCB
S11309C0F0E0EE0FFF1FE054FD4F349130938202AC
S11309D09F5F909388028F5F80938702973010F017
S11309E0109288028A3010F01092870250E022E2BE
S11309F0249FC001259F900D1124805E9E4FDC0131
S1130A0011962C91ABE1B6E014962C931497FC014B
S1130A10908113969C93139786E011968C9311976B
S1130A2083E1891B12968C93129781E08C935596DF
S1130A303C9370E025C0872F90E0262F30E0880F8C
S1130A40991F880F991FA1E1A49FF001A59FF00DA4
S1130A501124E80FF91FE20FF31F3196EE0FFF1F69
S1130A60E05EFE4FE081855E994FDC01A20FB31F6B
S1130A701596EC936F5F01C060E06430E0F27F5F35
S1130A807430D0F386E1EBE1F6E0DE0111960190DB
S1130A900D928A95E1F786E1FE013196ABE1B6E06D
S1130AA001900D928A95E1F70E94DE038BE196E0B6
S1130AB00E94AC03892B19F081E08093840266962E
S1130AC00FB6F894DEBF0FBECDBFDF91CF9108956E
S1130AD060E01AC0862F90E0242F30E0880F991F21
S1130AE0880F991FFC01E55EF94FE20FF31F558152
S1130AF08F5C994FFC01E20FF31F55834F5F01C0D8
S1130B0040E0443038F36F5F6430D0F3ABE1B6E0DB
S1130B1011968C911197E1E3F6E0818312968C9102
S1130B201297828314968C9114978483833059F599
S1130B3017968C91179785831B968C911B978683A8
S1130B401F968C911F97878316968C911697818791
S1130B501A968C911A9782871E968C911E9783877A
S1130B6015968C911597858719968C911997868778
S1130B701D968C91878710861486108A148A138A8E
S1130B80128A118A55C090918302992309F47DC079
S1130B90843009F04DC080918502882309F160E01A
S1130BA043C0862F90E0242F30E0880F991F880FD0
S1130BB0991FFC01E20FF31FE858FF4FEE0FFF1FD0
S1130BC0E05EFE4F50818F5C994FFC01E20FF31FF2
S1130BD055834F5F01C040E0443018F36F5F01C09C
S1130BE060E06430C0F381E08093850221C0862FE9
S1130BF090E0242F30E0880F991F880F991FFC0183
S1130C00E20FF31F7296EE0FFF1FE05EFE4F50815E
S1130C108F5C994FFC01E20FF31F55834F5F01C0B6
S1130C2040E0443020F36F5F6430D0F310928502CB
S1130C3081E396E00E948803892B29F581E396E0FD
S1130C400E94AC03892BE1F01EC0862F90E0242F74
S1130C5030E0880F991F880F991FFC01EF5CF94F52
S1130C60E20FF31F5581855E994FFC01E20FF31FDC
S1130C7055834F5F01C040E0443038F36F5F01C0DB
S1130C8060E06430C0F30E94DE030895CF93DF93E5
S1130C90C82F8C3631F4EBE1F6E0818181508183F9
S1130CA01EC0823731F4EBE1F6E081818F5F8183EE
S1130CB016C08436A1F4EBE1F6E082818150828390
S1130CC081110DC0CF010E94AC03892B41F40E9415
S1130CD02C0310921B060E94DE030E94C8048BE1C1
S1130CE096E00E948803892B31F48BE196E00E9400
S1130CF0AC03892BF1F0CC3631F4EBE1F6E08181E1
S1130D008F5F818316C0C23731F4EBE1F6E0818155
S1130D10815081830EC0C43661F4CBE1D6E08A8170
S1130D208F5F8A830E942C0318820E94DE030E9434
S1130D30C8040E94DE0385E88A95F1F70000DF917C
S1130D40CF910895833109F045C00895482F50E0AC
S1130D509A012F5F3F4F692F70E0ADE0A29FF00131
S1130D60A39FF00D1124E65BF94FE60FF71FB08146
S1130D70A49FF001A59FF00D1124E65BF94FE60F47
S1130D80F71FB083F901EE0FFF1FE20FF31FEE0F01
S1130D90FF1FEE0FFF1FE65BF94FE60FF71FEC5F37
S1130DA0FE4F2081FA01EE0FFF1F4E0F5F1F440F0D
S1130DB0551F440F551F465B594F460F571FFA01E5
S1130DC0EC5FFE4F20839F5F01C090E09C3008F4ED
S1130DD0BDCF8F5F8331C8F30895EF92FF920F93D5
S1130DE01F93CF93DF93C0E0D0E003E110E064C031
S1130DF03DE0309FF001319FF00D1124E65BF94F87
S1130E00E80FF91F3081230F019603C020E080E032
S1130E1090E08C30910564F32C30C0F44BC08DE02D
S1130E20809FF001819FF00D1124E65BF94FEE0DD8
S1130E30FF1D10820E94DE0387EE93E00197F1F715
S1130E4000C000009FEFE91AF90A02C0E12CF12C5E
S1130E502CE0E216F1041CF3802F0E94A2060F5F1F
S1130E601F4F21960E94DE038FEF90E722E081500E
S1130E7090402040E1F700C0000080911A068F5F87
S1130E8080931A06809148069091490601969093A2
S1130E90490680934806809175029091760289975D
S1130EA04CF080917502909176024497909376026B
S1130EB080937502015011090C171D070CF0A6CF81
S1130EC0DF91CF911F910F91FF90EF90089540E033
S1130ED050E014C02DE0289FF001299FF00D11244B
S1130EE0E65BF94FE40FF51F1082019602C080E023
S1130EF090E08431910574F34F5F5F4F4C3051059E
S1130F00B4F308958CE291E00BC00197FC01EE0F5D
S1130F10FF1FE80FF91FEA56FD4F1182108212825B
S1130F201816190694F36CE271E086E992E00E94C7
S1130F30C30185E88A95F1F7000008950E948207AD
S1130F40809174028823E1F38091930210927402D9
S1130F500E94DE03089580E090E018C0FC01EE0FCB
S1130F60FF1FE859FF4FE491F0E09F01220F331F68
S1130F70E20FF31FEA56FD4F209102013091030165
S1130F80409104012083318342830196843091058A
S1130F902CF380E090E027C0FC013C96EE0FFF1F8D
S1130FA0E859FF4FE491F0E09F01220F331FE20F55
S1130FB0F31FEA56FD4F209105013091060140913F
S1130FC00701208331834283EAE9F0E0E491F0E011
S1130FD0BF01660F771FE60FF71FEA56FD4F208308
S1130FE031834283019683309105B4F2E0E7F0E067
S1130FF0E491F0E0CF01880F991FE80FF91FEA563A
S1131000FD4F8091080190910901A0910A0180830C
S11310109183A283E8E8F0E0E491F0E09F01220FDD
S1131020331FE20FF31FEA56FD4F80839183A2839F
S1131030E0EAF0E0E491F0E09F01220F331FE20FB9
S1131040F31FEA56FD4F80839183A283EEE9F0E01B
S1131050E491F0E09F01220F331FE20FF31FEA56E1
S1131060FD4F80839183A28381E090E027C0FC013F
S1131070B496EE0FFF1FE859FF4FE491F0E09F0193
S1131080220F331FE20FF31FEA56FD4F2091170181
S11310903091180140911901208331834283ECE996
S11310A0F0E0E491F0E0BF01660F771FE60FF71F51
S11310B0EA56FD4F208331834283019684309105A3
S11310C0B4F285E090E026C0FC01EE0FFF1FE85962
S11310D0FF4FE491F0E09F01220F331FE20FF31F53
S11310E0EA56FD4F20910E0130910F0140911001FD
S11310F0208331834283EAE8F0E0E491F0E0BF0129
S1131100660F771FE60FF71FEA56FD4F20833183E2
S11311104283019688309105BCF2EAEBF0E0E49159
S1131120F0E0CF01880F991FE80FF91FEA56FD4F31
S11311308091110190911201A091130180839183F8
S1131140A283E2EAF0E0E491F0E09F01220F331F72
S1131150E20FF31FEA56FD4F80839183A283E4EAF2
S1131160F0E0E491F0E09F01220F331FE20FF31F40
S1131170EA56FD4F80839183A283ECE8F0E0E4918A
S1131180F0E09F01220F331FE20FF31FEA56FD4FD9
S113119080839183A28386E090E019C0FC01B49619
S11311A0EE0FFF1FE859FF4FE491F0E09F01220F7B
S11311B0331FE20FF31FEA56FD4F20910B013091CC
S11311C00C0140910D0120833183428301968A30C2
S11311D0910524F389E090E053C0FC01EE0FFF1F5A
S11311E0E859FF4FE491F0E09F01220F331FE20F13
S11311F0F31FEA56FD4F20911A0130911B014091D3
S11312001C01208331834283E6E9F0E0E491F0E0BD
S1131210BF01660F771FE60FF71FEA56FD4F2083C5
S1131220318342838B30910554F5FC013C96EE0FDB
S1131230FF1FE859FF4FE491F0E09F01220F331F95
S1131240E20FF31FEA56FD4F20911D0130911E015C
S113125040911F01208331834283FC017896EE0F75
S1131260FF1FE859FF4FE491F0E0BF01660F771FBD
S1131270E60FF71FEA56FD4F208331834283019620
S11312808C3091050CF4A9CF6CE271E086E992E010
S11312900E94C30108950F931F93CF9321C08FEF32
S11312A08C0F80931D068BE196E00E94AC03892B82
S11312B041F00BE116E0F801C2830E942C03F8010F
S11312C0108280911D06811109C00E942C03109286
S11312D01B060E94DE030E94C8040CC00E94DE03A9
S11312E0C0911D06C111DBCF8BE196E00E94AC03D7
S11312F0892BA9F2CF911F910F910895F894FFCFF4
S113130001001E1E1E00330014330033330033006B
S1131310001400330000330014330033140C213361
S113132001020100010000000000010001000000B2
S113133000000000000000000000000000000000A9
S11313400000030401000000000000000100000090
S11313500000000001000000000000000100000087
S11313600000000001030100010001000000000072
S11313700000010000000000000000000000000068
S11313800000000000000103000000000100000054
S11313900100010001000000000000000000000046
S11313A00000000000000000010301000100010032
S11313B00000000001000000000000000000000028
S11313C00000000000000000000001030000010014
S11313D00100000001000100000000000000000006
S11313E000000000000000000000000001030100F4
S11313F001000000000000000100010000000000E6
S113140000000000000000000000000000000104D3
S113141001000100010001000000000000000000C4
S113142000000000000000000000000000000000B8
S113143001030000000000000000000001000000A3
S11314400000010001000100000000000000000095
S11314500000010300000000000000000000000084
S11314600100000001000100010000000000000074
S10B14700000000001C80000A7
S9030000FC
