S01100004E65775465747269732E737265636E
S11300000C9434000C9451000C9451000C94510045
S11300100C9451000C9451000C9451000C94510018
S11300200C9451000C9451000C9451000C94510008
S11300300C9451000C9451000C9401010C94510047
S11300400C9451000C9451000C94D3000C94510066
S11300500C9451000C9451000C9451000C945100D8
S11300600C9451000C94510011241FBECFEFD8E022
S1130070DEBFCDBF11E0A0E0B1E0E8EBF2E002C0EA
S113008005900D92A230B107D9F724E0A2E0B1E0C7
S113009001C01D92A639B207E1F70E9437010C9402
S11300A05A010C940000FC019B01220F331F620FC4
S11300B0731F8AB180628AB9ABB1AF7D5BB1506204
S11300C0BFB7F89410C09F012F5F3F4F408168E095
S11300D05BB947FFABB9440F000000C0ABB96A95E8
S11300E0B9F7BC01F901CB010197672B61F7BFBFD9
S11300F085E88A95F1F700000895CF93DF93C0E077
S1130100D0E01AC0FE01EE0FFF1FEC0FFD1FEE5EE4
S1130110FE4F8BE0818382836CE271E082E191E0A7
S11301200E9453002FE788E391E0215080409040E3
S1130130E1F700C000002196CF3FD10519F314F375
S1130140DF91CF91089584B1806284B90E943E0109
S11301502FE788E391E0215080409040E1F700C010
S1130160000084B1826084B982E085B997E297BDCA
S113017084BD95EC95BDEEE6F0E0908192609083AD
S11301801092C50097E69093C4008093C000E1EC00
S1130190F0E0808188698083E2ECF0E08081866011
S11301A08083789408951F920F920FB60F921124B2
S11301B08F93AF93BF93EF93FF938091C000E2E0DE
S11301C0F1E081838181887129F0E4E0F1E08081AC
S11301D0826080838091C600E2E0F1E08083A4E045
S11301E0B1E08C9181608C93808180931101FF91A7
S11301F0EF91BF91AF918F910F900FBE0F901F9011
S113020018951F920F920FB60F9211248F939F93FC
S113021080910501909106010196909306018093C7
S11302200501809105019091060184369105C1F480
S11302301092060110920501809100019091010134
S1130240019731F415B8109201011092000108C011
S113025082E085B981E090E09093010180930001F0
S11302609F918F910F900FBE0F901F9018950E9431
S1130270A3000E947D0080E090E008958CE291E06C
S11302800BC00197FC01EE0FFF1FE80FF91FEE5E94
S1130290FE4F1182108212821816190694F36CE232
S11302A071E082E191E00E94530085E88A95F1F7BC
S10B02B000000895F894FFCF4B
S10502B801003F
S9030000FC
