:100000000C94A4010C94C1010C94C1010C94C10185
:100010000C94C1010C94C1010C94C1010C94C10158
:100020000C94C1010C94C1010C94C1010C94C10148
:100030000C94C1010C94C1010C944B020C94C101AD
:100040000C94C1010C94C1010C941D020C94C101CB
:100050000C94C1010C94C1010C94C1010C94C10118
:100060000C94C1010C94C1010000010002000300C6
:100070000400050006000700080009000A000B0044
:1000800017001600150014001300120011001000D4
:100090000F000E000D000C00180019001A001B00C4
:1000A0001C001D001E001F00200021002200230054
:1000B0002F002E002D002C002B002A0029002800E4
:1000C00027002600250024003000310032003300D4
:1000D0003400350036003700380039003A003B0064
:1000E00047004600450044004300420041004000F4
:1000F0003F003E003D003C00480049004A004B00E4
:100100004C004D004E004F00500051005200530073
:100110005F005E005D005C005B005A005900580003
:1001200057005600550054006000610062006300F3
:100130006400650066006700680069006A006B0083
:100140007700760075007400730072007100700013
:100150006F006E006D006C00780079007A007B0003
:100160007C007D007E007F00800081008200830093
:100170008F008E008D008C008B008A008900880023
:100180008700860085008400900091009200930013
:100190009400950096009700980099009A009B00A3
:1001A000A700A600A500A400A300A200A100A00033
:1001B0009F009E009D009C00A800A900AA00AB0023
:1001C000AC00AD00AE00AF00B000B100B200B300B3
:1001D000BF00BE00BD00BC00BB00BA00B900B80043
:1001E000B700B600B500B400C000C100C200C30033
:1001F000C400C500C600C700C800C900CA00CB00C3
:10020000D700D600D500D400D300D200D100D00052
:10021000CF00CE00CD00CC00D800D900DA00DB0042
:10022000DC00DD00DE00DF00E000E100E200E300D2
:10023000EF00EE00ED00EC00EB00EA00E900E80062
:10024000E700E600E500E400F000F100F200F30052
:10025000F400F500F600F700F800F900FA00FB00E2
:10026000070106010501040103010201010100016A
:10027000FF00FE00FD00FC00080109010A010B015E
:100280000C010D010E010F011001110112011301EA
:100290001F011E011D011C011B011A01190118017A
:1002A000170116011501140120012101220123016A
:1002B0002401250126012701280129012A012B01FA
:1002C000040000000700030006000200050009000A
:1002D00008000100080009000200040000000100FD
:1002E00006000700050003000800010003000200EB
:1002F00005000700040000000900060000000500DA
:1003000009000800020001000700060003000400C5
:1003100004000000030005000100060003000100C6
:1003200004000300020000000600050000000500B4
:1003300002000600010003000400000006000100A6
:10034000030005000200040011241FBECFEFD8E017
:10035000DEBFCDBF12E0A0E0B1E0EAEFFFE002C0F7
:1003600005900D92A635B107D9F728E0A6E5B2E0D1
:1003700001C01D92AA31B207E1F70E94B0020C94AD
:10038000FB070C940000FC019B01220F331F620F3E
:10039000731F8AB180628AB9ABB1AF7D5BB1506225
:1003A000BFB7F89410C09F012F5F3F4F408168E0B6
:1003B0005BB947FFABB9440F000000C0ABB96A9509
:1003C000B9F7BC01F901CB010197672B61F7BFBFFA
:1003D00085E88A95F1F70000089584B1806284B9B8
:1003E0000E949F072FE788E391E0215080409040D2
:1003F000E1F700C0000084B1826084B982E085B971
:1004000097E297BD84BD95EC95BDEEE6F0E0908156
:10041000926090831092C50097E69093C4008093F9
:10042000C000E1ECF0E0808188698083E2ECF0E0DC
:10043000808186608083789408951F920F920FB612
:100440000F9211248F93AF93BF93EF93FF938091FB
:10045000C000E6E5F2E081838181887129F0E8E55A
:10046000F2E08081826080838091C600E6E5F2E060
:100470008083A8E5B2E08C9181608C938081809329
:100480006F02FF91EF91BF91AF918F910F900FBECF
:100490000F901F9018951F920F920FB60F92112474
:1004A0002F933F934F935F936F937F938F939F937C
:1004B000AF93BF93EF93FF938091590290915A02AB
:1004C000019690935A028093590280917002909104
:1004D000710201969093710280937002809159028B
:1004E00090915A0284369105C1F410925A021092EA
:1004F00059028091000190910101019731F415B8E2
:10050000109201011092000108C082E085B981E0DB
:1005100090E090930101809300012091700230914E
:10052000710280915302909154022817390739F4CF
:1005300084E60E9463061092710210927002FF918D
:10054000EF91BF91AF919F918F917F916F915F914B
:100550004F913F912F910F900FBE0F901F901895C4
:100560000E94ED010E94ED0180916F028136A1F0A1
:1005700080916F02833781F080916F02843661F041
:1005800080916F028A3641F080916F028B3621F0A4
:1005900080916F028C3641F70E949F0780E3809321
:1005A0006F020E94B60480916F02843689F028F4AD
:1005B000813651F08236D1F020C08B36A1F08337DE
:1005C00059F08A36D1F40CC08CE60E94630615C03F
:1005D00082E70E94630611C084E60E9463060DC094
:1005E0000E9455050AC00E94C80707C01092520217
:1005F00080E280936F020E94BB070E940A0780E29C
:1006000080936F022FE788E391E021508040904073
:10061000E1F700C0000080916002882321F288EC9D
:1006200090E090935402809353020E949F070E948F
:1006300084071092600296CFCF93DF93B0E04BC057
:10064000E7EFF5E081818A0F22812B0F8C30E0F5F6
:100650002431D0F54B2F50E06A2F70E0FA01EE0FF5
:10066000FF1FEE0FFF1FE950FA4FE60FF71FC5817E
:10067000CC2351F130E090E0DDE0D29FF001D39F38
:10068000F00D1124EA5DF94FE80FF91FC083C09106
:100690000C06F901EE0FFF1F2E0F3F1F220F331F15
:1006A000220F331F2A5D394F820F931FFC01EC5F2D
:1006B000FE4FC083440F551F440F551F49505A4FDA
:1006C000FA01E60FF71F1582AF5F01C0A0E0A4306A
:1006D00008F4B6CFBF5FB430C8F31092610285E86A
:1006E0008A95F1F70000DF91CF910895DC0130E0A9
:1006F00019C0E32FF0E0EE0FFF1FEE0FFF1FEA0F10
:10070000FB1FE90FF11D2581222331F011962C9159
:100710001197290F2C3058F49F5F01C090E094305E
:1007200040F33F5F3430D0F380E090E0089581E003
:1007300090E00895DC0130E027C011968C9111976C
:10074000890F1296EC911297232F2E0FE32FF0E0D2
:10075000EE0FFF1FEE0FFF1FEA0FFB1FE90FF11D4A
:100760004581413059F44DE0249FF0011124EA5DA8
:10077000F94FE80FF11D8081813059F09F5F01C072
:1007800090E09430D0F23F5F3430D0F380E090E0DE
:10079000089581E090E00895CF92DF92EF9240E0DB
:1007A00050E0D3C02091F705222359F12091F8059C
:1007B00030E0421753073CF16091FB0570E0F9010E
:1007C000E60FF71F4E175F0704F5E091F905F0E01B
:1007D0008E179F07E4F06E0F7F1F86179707CCF4E4
:1007E000BC016E1B7F0BFA01E21BF30B9B01220F76
:1007F000331F220F331F29503A4FE20FF31F358169
:1008000009C030E007C030E005C030E003C030E090
:1008100001C030E02DE0289FF001299FF00D112448
:10082000EA5DF94FE40FF51F20812223B9F19C0105
:10083000220F331FF901E80FF91FEE0FFF1FEE0F14
:10084000FF1FE40FF51FEE0FFF1FE859FF4FE49164
:10085000F0E0D901A80FB91FAA0FBB1FAA0FBB1F39
:10086000AA5DB94FA40FB51FAC5FBE4F2C9130E00D
:10087000BF01660F771FE60FF71FEE58FD4FD90136
:10088000AA0FBB1F2A0F3B1FD901AE5FBE4FCD90F1
:10089000DD90EC90C082D182E2824DC0332351F1D1
:1008A000FC01EE0FFF1FE80FF91FEE0FFF1FEE0F09
:1008B000FF1FE40FF51FEE0FFF1FE859FF4FE491F4
:1008C000F0E020910C0630E0BF01660F771FE60FC5
:1008D000F71FEE58FD4FD901AA0FBB1F2A0F3B1F70
:1008E000D901AE5FBE4FCD90DD90EC90C082D18239
:1008F000E28221C0FC01EE0FFF1FE80FF91FEE0F8F
:10090000FF1FEE0FFF1FE40FF51FEE0FFF1FE8594B
:10091000FF4FE491F0E09F01220F331FE20FF31F1E
:10092000EE58FD4FC0905B02D0905C02E0905D02FB
:10093000C082D182E282019602C080E090E08431E0
:1009400091050CF42FCF4F5F5F4F4C305105ACF346
:100950006CE271E082E792E00E94C30185E88A952B
:10096000F1F70000EF90DF90CF900895CF93DF93E1
:10097000CDB7DEB766970FB6F894DEBF0FBECDBF1A
:1009800090916402E92FF0E0EE0FFF1FE05FFC4F53
:10099000449140935F0280916302E82FF0E0EE0FF4
:1009A000FF1FE054FD4F349130935E029F5F9093A0
:1009B00064028F5F80936302973010F0109264029C
:1009C0008A3010F01092630250E022E2249FC001AE
:1009D000259F900D1124805E9E4FDC0111962C9175
:1009E000A7EFB5E014962C931497FC018081139621
:1009F0008C93139786E011968C9311978AE0129648
:100A00008C93129781E08C9355963C9370E025C0AF
:100A1000872F90E0262F30E0880F991F880F991FAD
:100A2000A1E1A49FF001A59FF00D1124E80FF91F8B
:100A3000E20FF31F3196EE0FFF1FE05EFE4FE081E5
:100A400089509A4FDC01A20FB31F1596EC936F5F8C
:100A500001C060E06430E0F27F5F7430D0F386E183
:100A6000E7EFF5E0DE01119601900D928A95E1F72E
:100A700086E1FE013196A7EFB5E001900D928A95CF
:100A8000E1F70E94CC0387EF95E00E949A03892B3F
:100A900019F081E08093600266960FB6F894DEBF8D
:100AA0000FBECDBFDF91CF91089560E01AC0862FB1
:100AB00090E0242F30E0880F991F880F991FFC01C8
:100AC000E950FA4FE20FF31F5581835F994FFC0104
:100AD000E20FF31F55834F5F01C040E0443038F30D
:100AE0006F5F6430D0F3A7EFB5E011968C9111974A
:100AF000EDE0F6E0818312968C9112978283149632
:100B00008C9114978483833009F05AC017968C9186
:100B1000179785831B968C911B9786831F968C91C4
:100B20001F97878316968C91169781871A968C91BA
:100B30001A9782871E968C911E97838715968C91A3
:100B40001597858719968C91199786871D968C9194
:100B5000878710861486108A148A138A128A118A4B
:100B6000709162027F5F70936202723019F51FC04C
:100B7000862F90E0242F30E0880F991F880F991F4F
:100B8000FC01E20FF31FE757FF4FEE0FFF1FE05E80
:100B9000FE4F5081835F994FFC01E20FF31F558395
:100BA0004F5F01C040E0443018F36F5F01C060E068
:100BB0006430C0F3743008F458C01092620255C01B
:100BC00090915F02992309F47DC0843009F04DC0F3
:100BD00080916102882309F160E043C0862F90E094
:100BE000242F30E0880F991F880F991FFC01E20F16
:100BF000F31FE858FF4FEE0FFF1FE05EFE4F5081DE
:100C0000835F994FFC01E20FF31F55834F5F01C0D3
:100C100040E0443018F36F5F01C060E06430C0F31F
:100C200081E08093610221C0862F90E0242F30E084
:100C3000880F991F880F991FFC01E20FF31F72960E
:100C4000EE0FFF1FE05EFE4F5081835F994FFC0166
:100C5000E20FF31F55834F5F01C040E0443020F3A3
:100C60006F5F6430D0F3109261028DE096E00E94D5
:100C70007603892B29F58DE096E00E949A03892B53
:100C8000E1F01EC0862F90E0242F30E0880F991FDE
:100C9000880F991FFC01E35FF94FE20FF31F5581A5
:100CA00089509A4FFC01E20FF31F55834F5F01C03B
:100CB00040E0443038F36F5F01C060E06430C0F35F
:100CC0000E94CC030895CF93DF93C82F8C3631F464
:100CD000E7EFF5E08181815081831EC0823731F4D6
:100CE000E7EFF5E081818F5F818316C08436A1F440
:100CF000E7EFF5E082818150828381110DC0CF0141
:100D00000E949A03892B41F40E941C031092F7055C
:100D10000E94CC030E94B60487EF95E00E94760300
:100D2000892B31F487EF95E00E949A03892BF1F02B
:100D3000CC3631F4E7EFF5E081818F5F818316C017
:100D4000C23731F4E7EFF5E08181815081830EC035
:100D5000C43661F4C7EFD5E08A818F5F8A830E9431
:100D60001C0318820E94CC030E94B6040E94CC038C
:100D700085E88A95F1F70000DF91CF9108958331DE
:100D800009F045C00895482F50E09A012F5F3F4F6A
:100D9000692F70E0ADE0A29FF001A39FF00D112438
:100DA000EA5DF94FE60FF71FB081A49FF001A59F00
:100DB000F00D1124EA5DF94FE60FF71FB083F9013A
:100DC000EE0FFF1FE20FF31FEE0FFF1FEE0FFF1FCF
:100DD000EA5DF94FE60FF71FEC5FFE4F2081FA0145
:100DE000EE0FFF1F4E0F5F1F440F551F440F551F7F
:100DF0004A5D594F460F571FFA01EC5FFE4F2083A3
:100E00009F5F01C090E09C3008F4BDCF8F5F8331BD
:100E1000C8F30895EF92FF920F931F93CF93DF9340
:100E2000C0E0D0E003E110E064C03DE0309FF0019D
:100E3000319FF00D1124EA5DF94FE80FF91F308161
:100E4000230F019603C020E080E090E08C309105F4
:100E500064F32C30C0F44BC08DE0809FF001819F83
:100E6000F00D1124EA5DF94FEE0DFF1D10820E9476
:100E7000CC0387EE93E00197F1F700C000009FEFED
:100E8000E91AF90A02C0E12CF12C2CE0E216F10477
:100E90001CF3802F0E94BF060F5F1F4F21960E94F8
:100EA000CC038FEF90E722E0815090402040E1F7A3
:100EB00000C000008091F6058F5F8093F605809159
:100EC000240690912506019690932506809324068A
:100ED000809153029091540289974CF08091530273
:100EE000909154024497909354028093530201507E
:100EF00011090C171D070CF0A6CFDF91CF911F91A0
:100F00000F91FF90EF90089540E050E014C02DE065
:100F1000289FF001299FF00D1124EA5DF94FE40F9D
:100F2000F51F1082019602C080E090E084319105A7
:100F300074F34F5F5F4F4C305105B4F308958CE26A
:100F400091E00BC00197FC01EE0FFF1FE80FF91FA6
:100F5000EE58FD4F1182108212821816190694F372
:100F60006CE271E082E792E00E94C30185E88A9515
:100F7000F1F7000008950E949F0780915202882394
:100F8000E1F380916F02109252020E94CC03089507
:100F90000F931F93CF9321C08FEF8C0F8093F90590
:100FA00087EF95E00E949A03892B41F007EF15E047
:100FB000F801C2830E941C03F80110828091F90598
:100FC000811109C00E941C031092F7050E94CC03F6
:100FD0000E94B6040CC00E94CC03C091F905C11157
:100FE000DBCF87EF95E00E949A03892BA9F2CF917E
:0A0FF0001F910F910895F894FFCFB0
:100FFA0001000101010002000102000202000200D8
:10100A0000010002000002000102000201000102C8
:10101A0001020100010000000000010001000000BF
:10102A0000000000000000000000000000000000B6
:10103A0000000004010000000000000001000000A0
:10104A000000000001000000000000000100000094
:10105A00000000000103010001000100000000007F
:10106A000000010000000000000000000000000075
:10107A000000000000000103000000000100000061
:10108A000100010001000000000000000000000053
:10109A00000000000000000001030100010001003F
:1010AA000000000001000000000000000000000035
:1010BA000000000000000000000001030000010021
:1010CA000100000001000100000000000000000013
:1010DA000000000000000000000000000103010001
:1010EA0001000000000000000100010000000000F3
:1010FA0000000000000000000000000000000104E1
:10110A0001000100010001000000000000000000D1
:10111A0000000000000000000000000000000000C5
:10112A0001030000010000000000010001000100AD
:10113A0000000000000000000000000000000000A5
:06114A00000001C80000D6
:00000001FF
