:100000000C94A4010C94C1010C94C1010C94C10185
:100010000C94C1010C94C1010C94C1010C94C10158
:100020000C94C1010C94C1010C94C1010C94C10148
:100030000C94C1010C94C1010C944D020C94C101AB
:100040000C94C1010C94C1010C941F020C94C101C9
:100050000C94C1010C94C1010C94C1010C94C10118
:100060000C94C1010C94C1010000010002000300C6
:100070000400050006000700080009000A000B0044
:1000800017001600150014001300120011001000D4
:100090000F000E000D000C00180019001A001B00C4
:1000A0001C001D001E001F00200021002200230054
:1000B0002F002E002D002C002B002A0029002800E4
:1000C00027002600250024003000310032003300D4
:1000D0003400350036003700380039003A003B0064
:1000E00047004600450044004300420041004000F4
:1000F0003F003E003D003C00480049004A004B00E4
:100100004C004D004E004F00500051005200530073
:100110005F005E005D005C005B005A005900580003
:1001200057005600550054006000610062006300F3
:100130006400650066006700680069006A006B0083
:100140007700760075007400730072007100700013
:100150006F006E006D006C00780079007A007B0003
:100160007C007D007E007F00800081008200830093
:100170008F008E008D008C008B008A008900880023
:100180008700860085008400900091009200930013
:100190009400950096009700980099009A009B00A3
:1001A000A700A600A500A400A300A200A100A00033
:1001B0009F009E009D009C00A800A900AA00AB0023
:1001C000AC00AD00AE00AF00B000B100B200B300B3
:1001D000BF00BE00BD00BC00BB00BA00B900B80043
:1001E000B700B600B500B400C000C100C200C30033
:1001F000C400C500C600C700C800C900CA00CB00C3
:10020000D700D600D500D400D300D200D100D00052
:10021000CF00CE00CD00CC00D800D900DA00DB0042
:10022000DC00DD00DE00DF00E000E100E200E300D2
:10023000EF00EE00ED00EC00EB00EA00E900E80062
:10024000E700E600E500E400F000F100F200F30052
:10025000F400F500F600F700F800F900FA00FB00E2
:10026000070106010501040103010201010100016A
:10027000FF00FE00FD00FC00080109010A010B015E
:100280000C010D010E010F011001110112011301EA
:100290001F011E011D011C011B011A01190118017A
:1002A000170116011501140120012101220123016A
:1002B0002401250126012701280129012A012B01FA
:1002C000040000000700030006000200050009000A
:1002D00008000100080009000200040000000100FD
:1002E00006000700050003000800010003000200EB
:1002F00005000700040000000900060000000500DA
:1003000009000800020001000700060003000400C5
:1003100004000000030005000100060003000100C6
:1003200004000300020000000600050000000500B4
:1003300002000600010003000400000006000100A6
:10034000030005000200040011241FBECFEFD8E017
:10035000DEBFCDBF12E0A0E0B1E0EEE1F3E102C00C
:1003600005900D92A637B107D9F728E0A6E7B2E0CD
:1003700001C01D92AD33B207E1F70E94BC020C949C
:100380008D090C940000FC019B01220F331F620FAA
:10039000731F8AB180628AB9ABB1AF7D5BB1506225
:1003A000BFB7F89410C09F012F5F3F4F408168E0B6
:1003B0005BB947FFABB9440F000000C0ABB96A9509
:1003C000B9F7BC01F901CB010197672B61F7BFBFFA
:1003D00085E88A95F1F70000089584B1806284B9B8
:1003E0000E9491070E94BA072FE788E391E021500D
:1003F00080409040E1F700C0000084B1826084B981
:1004000082E085B997E297BD84BD95EC95BDEEE697
:10041000F0E09081926090831092C50097E69093EF
:10042000C4008093C000E1ECF0E0808188698083A3
:10043000E2ECF0E0808186608083789408951F92DA
:100440000F920FB60F9211248F93AF93BF93EF9338
:10045000FF938091C000E6E7F2E08183818188719B
:1004600029F0E8E7F2E08081826080838091C60015
:10047000E6E7F2E08083A8E7B2E08C9181608C939C
:10048000808180939202FF91EF91BF91AF918F9104
:100490000F900FBE0F901F9018951F920F920FB6DE
:1004A0000F9211242F933F934F935F936F937F93FA
:1004B0008F939F93AF93BF93EF93FF9380917902B4
:1004C00090917A02019690937A02809379028091BA
:1004D00093029091940201969093940280939302D8
:1004E0008091790290917A0284369105C1F410923C
:1004F0007A02109279028091000190910101019796
:1005000031F415B8109201011092000108C082E088
:1005100085B981E090E090930101809300012091E2
:100520009302309194028091740290917502281781
:1005300039078CF080917C0290917D02019759F4EB
:1005400080917B02811107C084E60E9455061092BB
:10055000940210929302FF91EF91BF91AF919F91FE
:100560008F917F916F915F914F913F912F910F905C
:100570000FBE0F901F9018950E94ED012FEF89E696
:1005800098E1215080409040E1F700C00000809148
:1005900092028136A1F080919202833781F080919E
:1005A0009202843661F0809192028A3641F0809105
:1005B00092028B3621F0809192028C3641F781E0D5
:1005C00090E090937D0280937C020E94910780E2EC
:1005D000809392020E94D704809192028A36C9F0D9
:1005E00028F4813651F0843661F022C08037B9F0AA
:1005F000833759F08B36E1F40FC08CE60E94550624
:1006000017C082E70E94550613C084E60E94550673
:100610000FC00E9477050CC00E945A0909C0809142
:100620007B028F5F80937B020E94AD0780937B02E9
:100630000E94FC0680E2809392022FE788E391E01B
:10064000215080409040E1F700C00000809183027B
:10065000882311F288EC90E09093750280937402E5
:100660000E9491070E9476071092830210927D02E9
:1006700010927C0281CFCF93DF93B0E04BC0EAE1D0
:10068000F6E081818A0F22812B0F8C30E0F5243136
:10069000D0F54B2F50E06A2F70E0FA01EE0FFF1FEC
:1006A000EE0FFF1FE65EF94FE60FF71FC581CC2363
:1006B00051F130E090E0DDE0D29FF001D39FF00DEA
:1006C0001124E75BF94FE80FF91FC083C0912F0693
:1006D000F901EE0FFF1F2E0F3F1F220F331F220FB6
:1006E000331F275B394F820F931FFC01EC5FFE4FD6
:1006F000C083440F551F440F551F465E594FFA01E2
:10070000E60FF71F1582AF5F01C0A0E0A43008F428
:10071000B6CFBF5FB430C8F3109284021092850246
:1007200085E88A95F1F70000DF91CF910895DC010B
:1007300030E019C0E32FF0E0EE0FFF1FEE0FFF1FB8
:10074000EA0FFB1FE90FF11D2581222331F01196DD
:100750002C911197290F2C3058F49F5F01C090E025
:10076000943040F33F5F3430D0F380E090E0089560
:1007700081E090E00895DC0130E027C011968C9173
:100780001197890F1296EC911297232F2E0FE32FBA
:10079000F0E0EE0FFF1FEE0FFF1FEA0FFB1FE90F48
:1007A000F11D4581413059F44DE0249FF0011124A1
:1007B000E75BF94FE80FF11D8081813059F09F5FB1
:1007C00001C090E09430D0F23F5F3430D0F380E04D
:1007D00090E0089581E090E00895CF92DF92EF924B
:1007E00040E050E0D3C020911A06222359F1209115
:1007F0001B0630E0421753073CF160911E0670E083
:10080000F901E60FF71F4E175F0704F5E0911C068C
:10081000F0E08E179F07E4F06E0F7F1F8617970793
:10082000CCF4BC016E1B7F0BFA01E21BF30B9B01A6
:10083000220F331F220F331F265E394FE20FF31FA3
:10084000358109C030E007C030E005C030E003C0AA
:1008500030E001C030E02DE0289FF001299FF00D2D
:100860001124E75BF94FE40FF51F20812223B9F132
:100870009C01220F331FF901E80FF91FEE0FFF1F34
:10088000EE0FFF1FE40FF51FEE0FFF1FE859FF4F9C
:10089000E491F0E0D901A80FB91FAA0FBB1FAA0F5E
:1008A000BB1FA75BB94FA40FB51FAC5FBE4F2C9108
:1008B00030E0BF01660F771FE60FF71FEB56FD4FC5
:1008C000D901AA0FBB1F2A0F3B1FD901AE5FBE4F34
:1008D000CD90DD90EC90C082D182E2824DC0332376
:1008E00051F1FC01EE0FFF1FE80FF91FEE0FFF1F84
:1008F000EE0FFF1FE40FF51FEE0FFF1FE859FF4F2C
:10090000E491F0E020912F0630E0BF01660F771FE1
:10091000E60FF71FEB56FD4FD901AA0FBB1F2A0F99
:100920003B1FD901AE5FBE4FCD90DD90EC90C082F1
:10093000D182E28221C0FC01EE0FFF1FE80FF91FF8
:10094000EE0FFF1FEE0FFF1FE40FF51FEE0FFF1F4F
:10095000E859FF4FE491F0E09F01220F331FE20FAF
:10096000F31FEB56FD4FC0907E02D0907F02E090C7
:100970008002C082D182E282019602C080E090E0D3
:10098000843191050CF42FCF4F5F5F4F4C305105F0
:10099000ACF36CE271E085E992E00E94C30185E866
:1009A0008A95F1F70000EF90DF90CF900895CF93F4
:1009B000DF93CDB7DEB766970FB6F894DEBF0FBEF4
:1009C000CDBF90918702E92FF0E0EE0FFF1FE05FAF
:1009D000FC4F44914093820280918602E82FF0E020
:1009E000EE0FFF1FE054FD4F3491309381029F5F63
:1009F000909387028F5F80938602973010F0109259
:100A000087028A3010F01092860250E022E2249F82
:100A1000C001259F900D1124805E9E4FDC01119630
:100A20002C91AAE1B6E014962C931497FC019081C6
:100A300013969C93139786E011968C93119783E1FC
:100A4000891B12968C93129781E08C9355963C9358
:100A500070E025C0872F90E0262F30E0880F991F87
:100A6000880F991FA1E1A49FF001A59FF00D11240B
:100A7000E80FF91FE20FF31F3196EE0FFF1FE05E44
:100A8000FE4FE081865E994FDC01A20FB31F1596E1
:100A9000EC936F5F01C060E06430E0F27F5F743020
:100AA000D0F386E1EAE1F6E0DE01119601900D92C5
:100AB0008A95E1F786E1FE013196AAE1B6E0019060
:100AC0000D928A95E1F70E94ED038AE196E00E947B
:100AD000BB03892B19F081E08093830266960FB6E1
:100AE000F894DEBF0FBECDBFDF91CF91089560E0D7
:100AF0001AC0862F90E0242F30E0880F991F880FAE
:100B0000991FFC01E65EF94FE20FF31F5581805DEE
:100B1000994FFC01E20FF31F55834F5F01C040E086
:100B2000443038F36F5F6430D0F3AAE1B6E0119639
:100B30008C911197E0E3F6E0818312968C911297E5
:100B4000828314968C9114978483833059F5179679
:100B50008C91179785831B968C911B9786831F9684
:100B60008C911F97878316968C91169781871A967A
:100B70008C911A9782871E968C911E978387159663
:100B80008C911597858719968C91199786871D9654
:100B90008C91878710861486108A148A138A128A89
:100BA000118A55C090918202992309F47DC0843046
:100BB00009F04DC080918402882309F160E043C0B0
:100BC000862F90E0242F30E0880F991F880F991FFF
:100BD000FC01E20FF31FE858FF4FEE0FFF1FE05E2E
:100BE000FE4F5081805D994FFC01E20FF31F55834A
:100BF0004F5F01C040E0443018F36F5F01C060E018
:100C00006430C0F381E08093840221C0862F90E09D
:100C1000242F30E0880F991F880F991FFC01E20FE5
:100C2000F31F7296EE0FFF1FE05EFE4F5081805D56
:100C3000994FFC01E20FF31F55834F5F01C040E065
:100C4000443020F36F5F6430D0F31092840280E36D
:100C500096E00E949703892B29F580E396E00E9495
:100C6000BB03892BE1F01EC0862F90E0242F30E0DB
:100C7000880F991F880F991FFC01E05DF94FE20F63
:100C8000F31F5581865E994FFC01E20FF31F5583D8
:100C90004F5F01C040E0443038F36F5F01C060E057
:100CA0006430C0F30E94ED030895CF93DF93C82F03
:100CB0008C3631F4EAE1F6E08181815081831EC0F7
:100CC000823731F4EAE1F6E081818F5F818316C0DB
:100CD0008436A1F4EAE1F6E08281815082838111B9
:100CE0000DC0CF010E94BB03892B41F40E943B033E
:100CF00010921A060E94ED030E94D7048AE196E042
:100D00000E949703892B31F48AE196E00E94BB038D
:100D1000892BF1F0CC3631F4EAE1F6E081818F5F86
:100D2000818316C0C23731F4EAE1F6E08181815057
:100D300081830EC0C43661F4CAE1D6E08A818F5F38
:100D40008A830E943B0318820E94ED030E94D7040D
:100D50000E94ED0385E88A95F1F70000DF91CF91BD
:100D60000895833109F045C00895482F50E09A0155
:100D70002F5F3F4F692F70E0ADE0A29FF001A39F6E
:100D8000F00D1124E75BF94FE60FF71FB081A49F28
:100D9000F001A59FF00D1124E75BF94FE60FF71F57
:100DA000B083F901EE0FFF1FE20FF31FEE0FFF1FDD
:100DB000EE0FFF1FE75BF94FE60FF71FEC5FFE4FEB
:100DC0002081FA01EE0FFF1F4E0F5F1F440F551FCA
:100DD000440F551F475B594F460F571FFA01EC5FF1
:100DE000FE4F20839F5F01C090E09C3008F4BDCF90
:100DF0008F5F8331C8F30895EF92FF920F931F9393
:100E0000CF93DF93C0E0D0E003E110E064C03DE0A9
:100E1000309FF001319FF00D1124E75BF94FE80F8F
:100E2000F91F3081230F019603C020E080E090E09D
:100E30008C30910564F32C30C0F44BC08DE0809F62
:100E4000F001819FF00D1124E75BF94FEE0DFF1DBE
:100E500010820E94ED0387EE93E00197F1F700C046
:100E600000009FEFE91AF90A02C0E12CF12C2CE0F6
:100E7000E216F1041CF3802F0E94B1060F5F1F4F92
:100E800021960E94ED038FEF90E722E08150904081
:100E90002040E1F700C00000809119068F5F809329
:100EA000190680914706909148060196909348064E
:100EB00080934706809174029091750289974CF057
:100EC000809174029091750244979093750280937B
:100ED0007402015011090C171D070CF0A6CFDF9109
:100EE000CF911F910F91FF90EF90089540E050E057
:100EF00014C02DE0289FF001299FF00D1124E75B1D
:100F0000F94FE40FF51F1082019602C080E090E0D7
:100F10008431910574F34F5F5F4F4C305105B4F34A
:100F200008958CE291E00BC00197FC01EE0FFF1FCA
:100F3000E80FF91FEB56FD4F11821082128218162E
:100F4000190694F36CE271E085E992E00E94C30116
:100F500085E88A95F1F700000895CF93C82F823075
:100F600020F00E94ED0380E003C00E9491078C2FC7
:100F7000CF91089580E090E018C0FC01EE0FFF1FB4
:100F8000E859FF4FE491F0E09F01220F331FE20F79
:100F9000F31FEB56FD4F2091020130910301409168
:100FA00004012083318342830196843091052CF320
:100FB00080E090E027C0FC013C96EE0FFF1FE8594F
:100FC000FF4FE491F0E09F01220F331FE20FF31F68
:100FD000EB56FD4F2091050130910601409107012C
:100FE000208331834283EAE9F0E0E491F0E0BF013D
:100FF000660F771FE60FF71FEB56FD4F20833183F7
:101000004283019683309105B4F2E0E7F0E0E49189
:10101000F0E0CF01880F991FE80FF91FEB56FD4F45
:101020008091080190910901A0910A018083918328
:10103000A283E8E8F0E0E491F0E09F01220F331F83
:10104000E20FF31FEB56FD4F80839183A283E0EA0A
:10105000F0E0E491F0E09F01220F331FE20FF31F55
:10106000EB56FD4F80839183A283EEE9F0E0E4919B
:10107000F0E09F01220F331FE20FF31FEB56FD4FED
:1010800080839183A28381E090E027C0FC01B49625
:10109000EE0FFF1FE859FF4FE491F0E09F01220F90
:1010A000331FE20FF31FEB56FD4F209117013091D4
:1010B000180140911901208331834283ECE9F0E06B
:1010C000E491F0E0BF01660F771FE60FF71FEB56C4
:1010D000FD4F208331834283019684309105B4F221
:1010E00085E090E026C0FC01EE0FFF1FE859FF4F9E
:1010F000E491F0E09F01220F331FE20FF31FEB5644
:10110000FD4F20910E0130910F014091100120837D
:1011100031834283EAE8F0E0E491F0E0BF01660F3A
:10112000771FE60FF71FEB56FD4F20833183428375
:10113000019688309105BCF2EAEBF0E0E491F0E032
:10114000CF01880F991FE80FF91FEB56FD4F8091D3
:10115000110190911201A091130180839183A283C8
:10116000E2EAF0E0E491F0E09F01220F331FE20F8A
:10117000F31FEB56FD4F80839183A283E4EAF0E0F6
:10118000E491F0E09F01220F331FE20FF31FEB56B3
:10119000FD4F80839183A283ECE8F0E0E491F0E0DE
:1011A0009F01220F331FE20FF31FEB56FD4F808389
:1011B0009183A28386E090E019C0FC01B496EE0F03
:1011C000FF1FE859FF4FE491F0E09F01220F331F0A
:1011D000E20FF31FEB56FD4F20910B0130910C01F4
:1011E00040910D0120833183428301968A3091051D
:1011F00024F389E090E053C0FC01EE0FFF1FE85993
:10120000FF4FE491F0E09F01220F331FE20FF31F25
:10121000EB56FD4F20911A0130911B0140911C01AA
:10122000208331834283E6E9F0E0E491F0E0BF01FE
:10123000660F771FE60FF71FEB56FD4F20833183B4
:1012400042838B30910554F5FC013C96EE0FFF1F55
:10125000E859FF4FE491F0E09F01220F331FE20FA6
:10126000F31FEB56FD4F20911D0130911E0140915F
:101270001F01208331834283FC017896EE0FFF1F0C
:10128000E859FF4FE491F0E0BF01660F771FE60FCA
:10129000F71FEB56FD4F20833183428301968C303C
:1012A00091050CF4A9CF6CE271E085E992E00E940F
:1012B000C30108950F931F93CF9321C08FEF8C0F1D
:1012C00080931C068AE196E00E94BB03892B41F0C3
:1012D0000AE116E0F801C2830E943B03F801108284
:1012E00080911C06811109C00E943B0310921A06CE
:1012F0000E94ED030E94D7040CC00E94ED03C09130
:101300001C06C111DBCF8AE196E00E94BB03892B4A
:0E131000A9F2CF911F910F910895F894FFCF8D
:10131E0001001E1E1E003300143300333300330051
:10132E00001400330000330014330033140C213347
:10133E000102010001000000000001000100000098
:10134E00000000000000000000000000000000008F
:10135E000000030401000000000000000100000076
:10136E00000000000100000000000000010000006D
:10137E000000000001030100010001000000000058
:10138E00000001000000000000000000000000004E
:10139E00000000000000010300000000010000003A
:1013AE00010001000100000000000000000000002C
:1013BE000000000000000000010301000100010018
:1013CE00000000000100000000000000000000000E
:1013DE0000000000000000000000010300000100FA
:1013EE0001000000010001000000000000000000EC
:1013FE0000000000000000000000000001030100DA
:10140E0001000000000000000100010000000000CB
:10141E0000000000000000000000000000000104B9
:10142E0001000100010001000000000000000000AA
:10143E00000000000000000000000000000000009E
:10144E000103000000000000000000000100000089
:10145E00000001000100010000000000000000007B
:10146E00000001030000000000000000000000006A
:10147E00010000000100010001000000000000005A
:06148E0000000000C80090
:00000001FF
