:100000000C94A4010C94C1010C94C1010C94C10185
:100010000C94C1010C94C1010C94C1010C94C10158
:100020000C94C1010C94C1010C94C1010C94C10148
:100030000C94C1010C94C1010C944B020C94C101AD
:100040000C94C1010C94C1010C941D020C94C101CB
:100050000C94C1010C94C1010C94C1010C94C10118
:100060000C94C1010C94C1010000010002000300C6
:100070000400050006000700080009000A000B0044
:1000800017001600150014001300120011001000D4
:100090000F000E000D000C00180019001A001B00C4
:1000A0001C001D001E001F00200021002200230054
:1000B0002F002E002D002C002B002A0029002800E4
:1000C00027002600250024003000310032003300D4
:1000D0003400350036003700380039003A003B0064
:1000E00047004600450044004300420041004000F4
:1000F0003F003E003D003C00480049004A004B00E4
:100100004C004D004E004F00500051005200530073
:100110005F005E005D005C005B005A005900580003
:1001200057005600550054006000610062006300F3
:100130006400650066006700680069006A006B0083
:100140007700760075007400730072007100700013
:100150006F006E006D006C00780079007A007B0003
:100160007C007D007E007F00800081008200830093
:100170008F008E008D008C008B008A008900880023
:100180008700860085008400900091009200930013
:100190009400950096009700980099009A009B00A3
:1001A000A700A600A500A400A300A200A100A00033
:1001B0009F009E009D009C00A800A900AA00AB0023
:1001C000AC00AD00AE00AF00B000B100B200B300B3
:1001D000BF00BE00BD00BC00BB00BA00B900B80043
:1001E000B700B600B500B400C000C100C200C30033
:1001F000C400C500C600C700C800C900CA00CB00C3
:10020000D700D600D500D400D300D200D100D00052
:10021000CF00CE00CD00CC00D800D900DA00DB0042
:10022000DC00DD00DE00DF00E000E100E200E300D2
:10023000EF00EE00ED00EC00EB00EA00E900E80062
:10024000E700E600E500E400F000F100F200F30052
:10025000F400F500F600F700F800F900FA00FB00E2
:10026000070106010501040103010201010100016A
:10027000FF00FE00FD00FC00080109010A010B015E
:100280000C010D010E010F011001110112011301EA
:100290001F011E011D011C011B011A01190118017A
:1002A000170116011501140120012101220123016A
:1002B0002401250126012701280129012A012B01FA
:1002C000040000000700030006000200050009000A
:1002D00008000100080009000200040000000100FD
:1002E00006000700050003000800010003000200EB
:1002F00005000700040000000900060000000500DA
:1003000009000800020001000700060003000400C5
:1003100004000000030005000100060003000100C6
:1003200004000300020000000600050000000500B4
:1003300002000600010003000400000006000100A6
:10034000030005000200040011241FBECFEFD8E017
:10035000DEBFCDBF12E0A0E0B1E0EAE8FFE002C0FE
:1003600005900D92A837B107D9F728E0A8E7B2E0C9
:1003700001C01D92AC33B207E1F70E94A7020C94B2
:10038000C3070C940000FC019B01220F331F620F76
:10039000731F8AB180628AB9ABB1AF7D5BB1506225
:1003A000BFB7F89410C09F012F5F3F4F408168E0B6
:1003B0005BB947FFABB9440F000000C0ABB96A9509
:1003C000B9F7BC01F901CB010197672B61F7BFBFFA
:1003D00085E88A95F1F70000089584B1806284B9B8
:1003E0000E9467072FE788E391E02150804090400A
:1003F000E1F700C0000084B1826084B982E085B971
:1004000097E297BD84BD95EC95BDEEE6F0E0908156
:10041000926090831092C50097E69093C4008093F9
:10042000C000E1ECF0E0808188698083E2ECF0E0DC
:10043000808186608083789408951F920F920FB612
:100440000F9211248F93AF93BF93EF93FF938091FB
:10045000C000E8E7F2E081838181887129F0EAE752
:10046000F2E08081826080838091C600E8E7F2E05C
:100470008083AAE7B2E08C9181608C938081809325
:100480009102FF91EF91BF91AF918F910F900FBEAD
:100490000F901F9018951F920F920FB60F92112474
:1004A0002F933F934F935F936F937F938F939F937C
:1004B000AF93BF93EF93FF9380917B0290917C0267
:1004C000019690937C0280937B0280917B029091B5
:1004D0007C0284369105C1F410927C0210927B025A
:1004E0008091000190910101019731F415B81092AB
:1004F00001011092000108C082E085B981E090E01E
:100500009093010180930001209192023091930217
:1005100080917502909176022817390739F484E6A4
:100520000E942B061092930210929202FF91EF917B
:10053000BF91AF919F918F917F916F915F914F91FB
:100540003F912F910F900FBE0F901F9018950E9412
:10055000ED01809191028136A1F080919102833763
:1005600081F080919102843661F0809191028A3607
:1005700041F0809191028B3621F0809191028C366E
:1005800041F70E94670780E3809391020E94AD04C7
:1005900080919102843689F028F4813651F08236B8
:1005A000D1F020C08B36A1F0833759F08A36D1F4D0
:1005B0000CC08CE60E942B0615C082E70E942B0619
:1005C00011C084E60E942B060DC00E944D050AC092
:1005D0000E94900707C01092740280E280939102FB
:1005E0000E9483070E94D20680E2809391022FE747
:1005F00088E391E0215080409040E1F700C0000086
:1006000080918202882321F288EC90E09093760218
:10061000809375020E9467070E944C071092820225
:1006200096CFCF93DF93B0E04BC0E9E1F6E0818154
:100630008A0F22812B0F8C30E0F52431D0F54B2F1F
:1006400050E06A2F70E0FA01EE0FFF1FEE0FFF1F60
:10065000E75EF94FE60FF71FC581CC2351F130E07B
:1006600090E0DDE0D29FF001D39FF00D1124E85B14
:10067000F94FE80FF91FC083C0912E06F901EE0F64
:10068000FF1F2E0F3F1F220F331F220F331F285B28
:10069000394F820F931FFC01EC5FFE4FC083440F64
:1006A000551F440F551F475E594FFA01E60FF71FBC
:1006B0001582AF5F01C0A0E0A43008F4B6CFBF5FE1
:1006C000B430C8F3109283021092840285E88A95B0
:1006D000F1F70000DF91CF910895DC0130E019C0FF
:1006E000E32FF0E0EE0FFF1FEE0FFF1FEA0FFB1FDF
:1006F000E90FF11D2581222331F011962C911197DC
:10070000290F2C3058F49F5F01C090E0943040F3E3
:100710003F5F3430D0F380E090E0089581E090E0D6
:100720000895DC0130E027C011968C911197890F54
:100730001296EC911297232F2E0FE32FF0E0EE0F7D
:10074000FF1FEE0FFF1FEA0FFB1FE90FF11D458191
:10075000413059F44DE0249FF0011124E85BF94F3A
:10076000E80FF11D8081813059F09F5F01C090E05A
:100770009430D0F23F5F3430D0F380E090E00895C1
:1007800081E090E00895CF92DF92EF9240E050E058
:10079000D3C020911906222359F120911A0630E086
:1007A000421753073CF160911D0670E0F901E60F16
:1007B000F71F4E175F0704F5E0911B06F0E08E1758
:1007C0009F07E4F06E0F7F1F86179707CCF4BC01DC
:1007D0006E1B7F0BFA01E21BF30B9B01220F331FF1
:1007E000220F331F275E394FE20FF31F358109C0F7
:1007F00030E007C030E005C030E003C030E001C0A9
:1008000030E02DE0289FF001299FF00D1124E85BD6
:10081000F94FE40FF51F20812223B9F19C01220F2B
:10082000331FF901E80FF91FEE0FFF1FEE0FFF1F37
:10083000E40FF51FEE0FFF1FE859FF4FE491F0E0C2
:10084000D901A80FB91FAA0FBB1FAA0FBB1FA85B16
:10085000B94FA40FB51FAC5FBE4F2C9130E0BF0164
:10086000660F771FE60FF71FEC56FD4FD901AA0F51
:10087000BB1F2A0F3B1FD901AE5FBE4FCD90DD904D
:10088000EC90C082D182E2824DC0332351F1FC0151
:10089000EE0FFF1FE80FF91FEE0FFF1FEE0FFF1FF8
:1008A000E40FF51FEE0FFF1FE859FF4FE491F0E052
:1008B00020912E0630E0BF01660F771FE60FF71F6D
:1008C000EC56FD4FD901AA0FBB1F2A0F3B1FD901C0
:1008D000AE5FBE4FCD90DD90EC90C082D182E282BF
:1008E00021C0FC01EE0FFF1FE80FF91FEE0FFF1FE5
:1008F000EE0FFF1FE40FF51FEE0FFF1FE859FF4F2C
:10090000E491F0E09F01220F331FE20FF31FEC563A
:10091000FD4FC0907D02D0907E02E0907F02C082A9
:10092000D182E282019602C080E090E0843191059C
:100930000CF42FCF4F5F5F4F4C305105ACF36CE29E
:1009400071E084E992E00E94C30185E88A95F1F79D
:100950000000EF90DF90CF900895CF93DF93CDB755
:10096000DEB766970FB6F894DEBF0FBECDBF90918D
:100970008602E92FF0E0EE0FFF1FE05FFC4F44918D
:100980004093810280918502E82FF0E0EE0FFF1F77
:10099000E054FD4F3491309380029F5F9093860224
:1009A0008F5F80938502973010F0109286028A3014
:1009B00010F01092850250E022E2249FC001259F92
:1009C000900D1124805E9E4FDC0111962C91A9E1BF
:1009D000B6E014962C931497FC01908113969C9387
:1009E000139786E011968C93119783E1891B1296D9
:1009F0008C93129781E08C9355963C9370E025C0C0
:100A0000872F90E0262F30E0880F991F880F991FBD
:100A1000A1E1A49FF001A59FF00D1124E80FF91F9B
:100A2000E20FF31F3196EE0FFF1FE05EFE4FE081F5
:100A3000875E994FDC01A20FB31F1596EC936F5F91
:100A400001C060E06430E0F27F5F7430D0F386E193
:100A5000E9E1F6E0DE01119601900D928A95E1F749
:100A600086E1FE013196A9E1B6E001900D928A95EA
:100A7000E1F70E94C30389E196E00E949103892B6C
:100A800019F081E08093820266960FB6F894DEBF7B
:100A90000FBECDBFDF91CF91089560E01AC0862FC1
:100AA00090E0242F30E0880F991F880F991FFC01D8
:100AB000E75EF94FE20FF31F5581815D994FFC010D
:100AC000E20FF31F55834F5F01C040E0443038F31D
:100AD0006F5F6430D0F3A9E1B6E011968C91119765
:100AE000EFE2F6E0818312968C911297828314963E
:100AF0008C9114978483833059F517968C911797AE
:100B000085831B968C911B9786831F968C911F97CC
:100B1000878316968C91169781871A968C911A97CF
:100B200082871E968C911E97838715968C911597B8
:100B3000858719968C91199786871D968C91878742
:100B400010861486108A148A138A128A118A55C054
:100B500090918102992309F47DC0843009F04DC041
:100B600080918302882309F160E043C0862F90E0E2
:100B7000242F30E0880F991F880F991FFC01E20F86
:100B8000F31FE858FF4FEE0FFF1FE05EFE4F50814E
:100B9000815D994FFC01E20FF31F55834F5F01C048
:100BA00040E0443018F36F5F01C060E06430C0F390
:100BB00081E08093830221C0862F90E0242F30E0D3
:100BC000880F991F880F991FFC01E20FF31F72967F
:100BD000EE0FFF1FE05EFE4F5081815D994FFC01DB
:100BE000E20FF31F55834F5F01C040E0443020F314
:100BF0006F5F6430D0F3109283028FE296E00E9420
:100C00006D03892B29F58FE296E00E949103892BD1
:100C1000E1F01EC0862F90E0242F30E0880F991F4E
:100C2000880F991FFC01E15DF94FE20FF31F558119
:100C3000875E994FFC01E20FF31F55834F5F01C0A0
:100C400040E0443038F36F5F01C060E06430C0F3CF
:100C50000E94C3030895CF93DF93C82F8C3631F4DD
:100C6000E9E1F6E08181815081831EC0823731F451
:100C7000E9E1F6E081818F5F818316C08436A1F4BB
:100C8000E9E1F6E082818150828381110DC0CF01BC
:100C90000E949103892B41F40E94110310921906BE
:100CA0000E94C3030E94AD0489E196E00E946D0397
:100CB000892B31F489E196E00E949103892BF1F0B0
:100CC000CC3631F4E9E1F6E081818F5F818316C093
:100CD000C23731F4E9E1F6E08181815081830EC0B1
:100CE000C43661F4C9E1D6E08A818F5F8A830E94AD
:100CF000110318820E94C3030E94AD040E94C30323
:100D000085E88A95F1F70000DF91CF91089583314E
:100D100009F045C00895482F50E09A012F5F3F4FDA
:100D2000692F70E0ADE0A29FF001A39FF00D1124A8
:100D3000E85BF94FE60FF71FB081A49FF001A59F74
:100D4000F00D1124E85BF94FE60FF71FB083F901AE
:100D5000EE0FFF1FE20FF31FEE0FFF1FEE0FFF1F3F
:100D6000E85BF94FE60FF71FEC5FFE4F2081FA01B9
:100D7000EE0FFF1F4E0F5F1F440F551F440F551FEF
:100D8000485B594F460F571FFA01EC5FFE4F208317
:100D90009F5F01C090E09C3008F4BDCF8F5F83312E
:100DA000C8F30895EF92FF920F931F93CF93DF93B1
:100DB000C0E0D0E003E110E064C03DE0309FF0010E
:100DC000319FF00D1124E85BF94FE80FF91F3081D6
:100DD000230F019603C020E080E090E08C30910565
:100DE00064F32C30C0F44BC08DE0809FF001819FF4
:100DF000F00D1124E85BF94FEE0DFF1D10820E94EB
:100E0000C30387EE93E00197F1F700C000009FEF66
:100E1000E91AF90A02C0E12CF12C2CE0E216F104E7
:100E20001CF3802F0E9487060F5F1F4F21960E94A0
:100E3000C3038FEF90E722E0815090402040E1F71C
:100E400000C00000809118068F5F80931806809183
:100E50004606909147060196909347068093460672
:100E6000809175029091760289974CF0809175027D
:100E70009091760244979093760280937502015088
:100E800011090C171D070CF0A6CFDF91CF911F9110
:100E90000F91FF90EF90089540E050E014C02DE0D6
:100EA000289FF001299FF00D1124E85BF94FE40F12
:100EB000F51F1082019602C080E090E08431910518
:100EC00074F34F5F5F4F4C305105B4F308958CE2DB
:100ED00091E00BC00197FC01EE0FFF1FE80FF91F17
:100EE000EC56FD4F1182108212821816190694F3E7
:100EF0006CE271E084E992E00E94C30185E88A9582
:100F0000F1F7000008950E9467078091740288231A
:100F1000E1F380919102109274020E94C30308953C
:100F20000F931F93CF9321C08FEF8C0F80931B06DD
:100F300089E196E00E949103892B41F009E116E0D6
:100F4000F801C2830E941103F801108280911B06F0
:100F5000811109C00E941103109219060E94C30357
:100F60000E94AD040CC00E94C303C0911B06C111B6
:100F7000DBCF89E196E00E949103892BA9F2CF9102
:0A0F80001F910F910895F894FFCF20
:100F8A0001001E1E1E0033001433003333003300E9
:100F9A00001400330000330014330033140C2133DF
:100FAA000102010001000000000001000100000030
:100FBA000000000000000000000000000000000027
:100FCA00000003040100000000000000010000000E
:100FDA000000000001000000000000000100000005
:100FEA0000000000010301000100010000000000F0
:100FFA0000000100000000000000000000000000E6
:10100A0000000000000001030000000001000000D1
:10101A0001000100010000000000000000000000C3
:10102A0000000000000000000103010001000100AF
:10103A0000000000010000000000000000000000A5
:10104A000000000000000000000001030000010091
:10105A000100000001000100000000000000000083
:10106A000000000000000000000000000103010071
:10107A000100000000000000010001000000000063
:10108A000000000000000000000000000000010451
:10109A000100010001000100000000000000000042
:1010AA000000000000000000000000000000000036
:1010BA000103000000000000000000000100000021
:1010CA000000010001000100000000000000000013
:1010DA000000010300000000000000000000000002
:1010EA0001000000010001000100000000000000F2
:0810FA000000000001C8000025
:00000001FF
