S01100004E65775465747269732E737265636E
S11300000C94A4010C94C1010C94C1010C94C10181
S11300100C94C1010C94C1010C94C1010C94C10154
S11300200C94C1010C94C1010C94C1010C94C10144
S11300300C94C1010C94C1010C944D020C94C101A7
S11300400C94C1010C94C1010C941F020C94C101C5
S11300500C94C1010C94C1010C94C1010C94C10114
S11300600C94C1010C94C1010000010002000300C2
S11300700400050006000700080009000A000B0040
S113008017001600150014001300120011001000D0
S11300900F000E000D000C00180019001A001B00C0
S11300A01C001D001E001F00200021002200230050
S11300B02F002E002D002C002B002A0029002800E0
S11300C027002600250024003000310032003300D0
S11300D03400350036003700380039003A003B0060
S11300E047004600450044004300420041004000F0
S11300F03F003E003D003C00480049004A004B00E0
S11301004C004D004E004F0050005100520053006F
S11301105F005E005D005C005B005A0059005800FF
S113012057005600550054006000610062006300EF
S11301306400650066006700680069006A006B007F
S1130140770076007500740073007200710070000F
S11301506F006E006D006C00780079007A007B00FF
S11301607C007D007E007F0080008100820083008F
S11301708F008E008D008C008B008A00890088001F
S1130180870086008500840090009100920093000F
S11301909400950096009700980099009A009B009F
S11301A0A700A600A500A400A300A200A100A0002F
S11301B09F009E009D009C00A800A900AA00AB001F
S11301C0AC00AD00AE00AF00B000B100B200B300AF
S11301D0BF00BE00BD00BC00BB00BA00B900B8003F
S11301E0B700B600B500B400C000C100C200C3002F
S11301F0C400C500C600C700C800C900CA00CB00BF
S1130200D700D600D500D400D300D200D100D0004E
S1130210CF00CE00CD00CC00D800D900DA00DB003E
S1130220DC00DD00DE00DF00E000E100E200E300CE
S1130230EF00EE00ED00EC00EB00EA00E900E8005E
S1130240E700E600E500E400F000F100F200F3004E
S1130250F400F500F600F700F800F900FA00FB00DE
S11302600701060105010401030102010101000166
S1130270FF00FE00FD00FC00080109010A010B015A
S11302800C010D010E010F011001110112011301E6
S11302901F011E011D011C011B011A011901180176
S11302A01701160115011401200121012201230166
S11302B02401250126012701280129012A012B01F6
S11302C00400000007000300060002000500090006
S11302D008000100080009000200040000000100F9
S11302E006000700050003000800010003000200E7
S11302F005000700040000000900060000000500D6
S113030009000800020001000700060003000400C1
S113031004000000030005000100060003000100C2
S113032004000300020000000600050000000500B0
S113033002000600010003000400000006000100A2
S1130340030005000200040011241FBECFEFD8E013
S1130350DEBFCDBF12E0A0E0B1E0E4E2F4E102C010
S113036005900D92A233B107D9F727E0A2E3B2E0DA
S113037001C01D92A03EB207E1F70E94BC020C949A
S1130380100A0C940000FC019B01220F331F620F22
S1130390731F8AB180628AB9ABB1AF7D5BB1506221
S11303A0BFB7F89410C09F012F5F3F4F408168E0B2
S11303B05BB947FFABB9440F000000C0ABB96A9505
S11303C0B9F7BC01F901CB010197672B61F7BFBFF6
S11303D085E88A95F1F70000089584B1806284B9B4
S11303E00E9410080E9439082FE788E391E0215009
S11303F080409040E1F700C0000084B1826084B97D
S113040082E085B997E297BD84BD95EC95BDEEE693
S1130410F0E09081926090831092C50097E69093EB
S1130420C4008093C000E1ECF0E08081886980839F
S1130430E2ECF0E0808186608083789408951F92D6
S11304400F920FB60F9211248F93AF93BF93EF9334
S1130450FF938091C000E2E3F2E08183818188719F
S113046029F0E4E3F2E08081826080838091C60019
S1130470E2E3F2E08083A4E3B2E08C9181608C93A8
S1130480808180934D02FF91EF91BF91AF918F9145
S11304900F900FBE0F901F9018951F920F920FB6DA
S11304A00F9211242F933F934F935F936F937F93F6
S11304B08F939F93AF93BF93EF93FF9380913502F4
S11304C09091360201969093360280933502809182
S11304D04E0290914F02019690934F0280934E02E8
S11304E0809135029091360284369105C1F41092C0
S11304F0360210923502809100019091010101971A
S113050031F415B8109201011092000108C082E084
S113051085B981E090E090930101809300012091DE
S11305204E0230914F02809130029091310228178F
S113053039078CF08091380290913902019759F46F
S113054080913702811107C084E60E94DA06109276
S11305504F0210924E02FF91EF91BF91AF919F9184
S11305608F917F916F915F914F913F912F910F9058
S11305700FBE0F901F9018950E94ED012FEF89E692
S113058098E1215080409040E1F700C00000809144
S11305904D028136A1F080914D02833781F0809124
S11305A04D02843661F080914D028A3641F080918B
S11305B04D028B3621F080914D028C3641F781E05B
S11305C090E090933902809338020E94100880E2F0
S11305D080934D020E94560580914D028A36C9F0DF
S11305E028F4813651F0843661F022C08037B9F0A6
S11305F0833759F08B36E1F40FC08CE60E94DA069B
S113060017C082E70E94DA0613C084E60E94DA0665
S11306100FC00E94FC050CC00E94D90909C080913A
S113062037028F5F809337020E942C088093370231
S11306300E94800780E280934D022FE788E391E0D7
S1130640215080409040E1F700C0000080914002BA
S1130650882311F288EC90E0909331028093300269
S11306600E9410080E94F207109240021092390270
S11306701092380281CF1F93CF93DF93B0E040C034
S1130680E4EDF5E081818A0F22812B0F8C3090F507
S1130690243180F54B2F50E06A2F70E0FA01EE0F01
S11306A0FF1FEE0FFF1FEC52FA4FE60FF71F1581E5
S11306B0112301F130E090E0E901CC0FDD1FFE01D0
S11306C0E20FF31FEE0FFF1FEE0FFF1FE050FA4F74
S11306D0E80FF91F10831091E905E051FF4F1083D3
S11306E0440F551F440F551F4C525A4FFA01E60F41
S11306F0F71F1582AF5F01C0A0E0A43008F2BF5F0E
S1130700B430D0F310923D0285E88A95F1F70000E9
S1130710DF91CF911F910895DC0130E019C0E32FE0
S1130720F0E0EE0FFF1FEE0FFF1FEA0FFB1FE90FB4
S1130730F11D2581222331F011962C911197290F57
S11307402C3058F49F5F01C090E0943040F33F5F39
S11307503430D0F380E090E0089581E090E0089593
S1130760DC0140E02CC011969C911197980F1296D1
S11307702C911297240FE42FF0E0EE0FFF1FEE0FE1
S1130780FF1FEA0FFB1FE80FF11D3581313089F49B
S113079030E0F901EE0FFF1FE20FF31FEE0FFF1F12
S11307A0EE0FFF1FE050FA4FE90FF11D90819130D9
S11307B059F08F5F01C080E08430A8F24F5F44306D
S11307C0D0F380E090E0089581E090E0089527E080
S11307D030E017C0FC01EE0FFF1FE80FF91FEE0F0A
S11307E0FF1FEE0FFF1FE050FA4FE20FF31F1082BE
S11307F0019602C084E190E0883191055CF32F5F9B
S11308003F4F2C303105B4F30895CF93DF93E0913B
S11308104202F0E0EE0FFF1FE05FFC4F4491409373
S11308203F02E0914102F0E0EE0FFF1FE054FD4F64
S1130830E491E0933E0250E082E2849FE001859FD0
S1130840D00D1124C05EDE4F8981A4EDB5E014966D
S11308508C931497888113968C9313975596EC93E5
S1130860559784E112968C93129789E011968C9394
S1130870A0E024C0262F30E08A2F90E0220F331FFF
S1130880220F331F71E1749FF001759FF00D112445
S1130890E20FF31FE80FF91F3196EE0FFF1FE05E22
S11308A0FE4F70812C523A4FF901E80FF91F7583FE
S11308B06F5F01C060E06430E8F2AF5FA430D0F352
S11308C00E943B0385E88A95F1F70000DF91CF9100
S11308D00895CF92DF92EF9240E050E0D6C020918D
S11308E0D405222359F12091D50530E0421753074E
S11308F03CF16091D80570E0F901E60FF71F4E173F
S11309005F0704F5E091D605F0E08E179F07E4F049
S11309106E0F7F1F86179707CCF4BC016E1B7F0BED
S1130920FA01E21BF30B9B01220F331F220F331F2B
S11309302C523A4FE20FF31F358109C030E007C053
S113094030E005C030E003C030E001C030E0FC011D
S1130950EE0FFF1FE80FF91FEE0FFF1FEE0FFF1F33
S1130960E050FA4FE40FF51F20812223B9F19C01D6
S1130970220F331FF901E80FF91FEE0FFF1FEE0FCF
S1130980FF1FE40FF51FEE0FFF1FE859FF4FE4911F
S1130990F0E0D901A80FB91FAA0FBB1FAA0FBB1FF4
S11309A0A050BA4FA40FB51FA051BF4F2C9130E0F7
S11309B0BF01660F771FE60FF71FE05BFD4FD901FC
S11309C0AA0FBB1F2A0F3B1FD901AE5FBE4FCD90AC
S11309D0DD90EC90C082D182E2824DC0332351F18C
S11309E0FC01EE0FFF1FE80FF91FEE0FFF1FEE0FC4
S11309F0FF1FE40FF51FEE0FFF1FE859FF4FE491AF
S1130A00F0E02091E90530E0BF01660F771FE60FA3
S1130A10F71FE05BFD4FD901AA0FBB1F2A0F3B1F35
S1130A20D901AE5FBE4FCD90DD90EC90C082D182F3
S1130A30E28221C0FC01EE0FFF1FE80FF91FEE0F49
S1130A40FF1FEE0FFF1FE40FF51FEE0FFF1FE85906
S1130A50FF4FE491F0E09F01220F331FE20FF31FD9
S1130A60E05BFD4FC0903A02D0903B02E0903C0224
S1130A70C082D182E282019602C080E090E084319B
S1130A8091050CF42CCF4F5F5F4F4C305105ACF304
S1130A906CE271E080E592E00E94C30185E88A95EA
S1130AA0F1F70000EF90DF90CF900895CF93DF939C
S1130AB0CDB7DEB766970FB6F894DEBF0FBECDBFD5
S1130AC090914202E92FF0E0EE0FFF1FE05FFC4F30
S1130AD0449140933F0280914102E82FF0E0EE0FF1
S1130AE0FF1FE054FD4F649160933E029F5F90931B
S1130AF042028F5F80934102973010F010924202BD
S1130B008A3010F01092410250E082E2849F9001FA
S1130B10859F300D1124205E3E4FD90111968C9192
S1130B20A4EDB5E014968C931497F90120811396E3
S1130B302C931397869596E0981B11969C93119786
S1130B4083E1821B12968C93129781E08C935596C5
S1130B506C9370E025C0872F90E0262F30E0880F3B
S1130B60991F880F991FA1E1A49FF001A59FF00D83
S1130B701124E80FF91FE20FF31F3196EE0FFF1F48
S1130B80E05EFE4FE0818C529A4FDC01A20FB31F4E
S1130B901596EC936F5F01C060E06430E0F27F5F14
S1130BA07430D0F386E1E4EDF5E0DE0111960190B6
S1130BB00D928A95E1F70E94050486E1FE013196C3
S1130BC0A4EDB5E001900D928A95E1F70E946904C5
S1130BD00E94E70384ED95E00E94B003892B19F08D
S1130BE081E08093400266960FB6F894DEBF0FBE94
S1130BF0CDBFDF91CF91089560E01AC0862F90E0B9
S1130C00242F30E0880F991F880F991FFC01EC52A4
S1130C10FA4FE20FF31F558186519A4FFC01E20F00
S1130C20F31F55834F5F01C040E0443038F36F5FDA
S1130C306430D0F3A4EDB5E011968C911197EAEEEF
S1130C40F5E0818312968C911297828314968C918D
S1130C5014978483833059F517968C91179785835D
S1130C601B968C911B9786831F968C911F97878365
S1130C7016968C91169781871A968C911A9782876B
S1130C801E968C911E97838715968C911597858750
S1130C9019968C91199786871D968C918787108653
S1130CA01486108A148A138A128A118A55C0909164
S1130CB03F02992309F47DC0843009F04DC080912E
S1130CC03D02882309F160E043C0862F90E0242F81
S1130CD030E0880F991F880F991FFC01E20FF31F62
S1130CE0E858FF4FEE0FFF1FE05EFE4F5081865124
S1130CF09A4FFC01E20FF31F55834F5F01C040E0A0
S1130D00443018F36F5F01C060E06430C0F381E0E9
S1130D1080933D0221C0862F90E0242F30E0880F7D
S1130D20991F880F991FFC01E20FF31F7296EE0FB3
S1130D30FF1FE05EFE4F508186519A4FFC01E20F87
S1130D40F31F55834F5F01C040E0443020F36F5FD1
S1130D506430D0F310923D028AEE95E00E948C0339
S1130D60892B29F58AEE95E00E94B003892BE1F0E6
S1130D701EC0862F90E0242F30E0880F991F880F23
S1130D80991FFC01E651FA4FE20FF31F55818C5273
S1130D909A4FFC01E20FF31F55834F5F01C040E0FF
S1130DA0443038F36F5F01C060E06430C0F30E94E8
S1130DB069040895CF93DF93C82F8C3631F4E4EDA2
S1130DC0F5E081818150818320C0823731F4E4EDE4
S1130DD0F5E081818F5F818318C08436B1F4E4ED3E
S1130DE0F5E082818150828381110FC0CF010E947E
S1130DF0B003892B51F40E943B031092D4050E9446
S1130E0069040E94E7030E94560584ED95E00E9460
S1130E108C03892B31F484ED95E00E94B003892B77
S1130E20F1F0CC3631F4E4EDF5E081818F5F81831C
S1130E3016C0C23731F4E4EDF5E08181815081833D
S1130E400EC0C43661F4C4EDD5E08A818F5F8A8315
S1130E500E943B0318820E9469040E9456050E9466
S1130E60690485E88A95F1F70000DF91CF91089530
S1130E701F93CF93DF938331E9F53EC0482F50E0B1
S1130E809A012F5F3F4F692F70E0F901EE0FFF1FAA
S1130E90DF01A20FB31FAA0FBB1FAA0FBB1FA050D5
S1130EA0BA4FA60FB71F1C91DA01AA0FBB1FED01A1
S1130EB0C40FD51FCC0FDD1FCC0FDD1FC050DA4F80
S1130EC0C60FD71F1883E20FF31FEE0FFF1FEE0F9D
S1130ED0FF1FE050FA4FE60FF71FE051FF4F20814C
S1130EE0FE01E051FF4F20839F5F01C090E09C30E2
S1130EF028F28F5F8331D0F3DF91CF911F91089552
S1130F00EF92FF920F931F93CF93DF93C0E0D0E053
S1130F1003E110E05CC0F801EE0FFF1FE00FF11FCA
S1130F20EE0FFF1FEE0FFF1FE050FA4FE80FF91FFF
S1130F303081230F019603C020E080E090E08C30E4
S1130F4091054CF32C30D8F440C0F801EE0FFF1F8C
S1130F50E00FF11FEE0FFF1FEE0FFF1FE050FA4FDF
S1130F60EE0DFF1D10820E94690487EE93E0019745
S1130F70F1F700C000009FEFE91AF90A02C0E12C62
S1130F80F12C2CE0E216F10404F3802F0E943807C0
S1130F900F5F1F4F21960E9469048FEF90E722E0B4
S1130FA0815090402040E1F700C000008091300261
S1130FB09091310289974CF08091300290913102E6
S1130FC088979093310280933002015011090C17D5
S1130FD01D070CF0B1CFDF91CF911F910F91FF90BE
S1130FE0EF90089520E030E017C0FC01EE0FFF1FE2
S1130FF0E80FF91FEE0FFF1FEE0FFF1FE050FA4F2F
S1131000E20FF31F1082019602C080E090E0843169
S113101091055CF32F5F3F4F2C303105B4F30895F5
S11310208CE291E00BC00197FC01EE0FFF1FE80F6B
S1131030F91FE05BFD4F1182108212821816190607
S113104094F36CE271E080E592E00E94C30185E8CC
S11310508A95F1F700000895CF93C82F823020F0CD
S11310600E94690480E003C00E9410088C2FCF9175
S1131070089580E090E018C0FC01EE0FFF1FE859CE
S1131080FF4FE491F0E09F01220F331FE20FF31FA3
S1131090E05BFD4F20910201309103014091040176
S11310A02083318342830196843091052CF380E0C0
S11310B090E027C0FC013C96EE0FFF1FE859FF4F5C
S11310C0E491F0E09F01220F331FE20FF31FE05B76
S11310D0FD4F2091050130910601409107012083C5
S11310E031834283EAE9F0E0E491F0E0BF01660F66
S11310F0771FE60FF71FE05BFD4F208331834283A8
S1131100019683309105B4F2E0E7F0E0E491F0E079
S1131110CF01880F991FE80FF91FE05BFD4F809105
S1131120080190910901A0910A0180839183A2830F
S1131130E8E8F0E0E491F0E09F01220F331FE20FB2
S1131140F31FE05BFD4F80839183A283E0EAF0E02C
S1131150E491F0E09F01220F331FE20FF31FE05BE5
S1131160FD4F80839183A283EEE9F0E0E491F0E007
S11311709F01220F331FE20FF31FE05BFD4F8083BB
S11311809183A28381E090E027C0FC01B496EE0F26
S1131190FF1FE859FF4FE491F0E09F01220F331F36
S11311A0E20FF31FE05BFD4F20911701309118010E
S11311B040911901208331834283ECE9F0E0E4910A
S11311C0F0E0BF01660F771FE60FF71FE05BFD4FEE
S11311D0208331834283019684309105B4F285E003
S11311E090E026C0FC01EE0FFF1FE859FF4FE49189
S11311F0F0E09F01220F331FE20FF31FE05BFD4F6E
S113120020910E0130910F01409110012083318310
S11312104283EAE8F0E0E491F0E0BF01660F771F53
S1131220E60FF71FE05BFD4F208331834283019675
S113123088309105BCF2EAEBF0E0E491F0E0CF01F4
S1131240880F991FE80FF91FE05BFD4F8091110192
S113125090911201A091130180839183A283E2EA09
S1131260F0E0E491F0E09F01220F331FE20FF31F3F
S1131270E05BFD4F80839183A283E4EAF0E0E49194
S1131280F0E09F01220F331FE20FF31FE05BFD4FDD
S113129080839183A283ECE8F0E0E491F0E09F0185
S11312A0220F331FE20FF31FE05BFD4F8083918316
S11312B0A28386E090E019C0FC01B496EE0FFF1FF4
S11312C0E859FF4FE491F0E09F01220F331FE20F32
S11312D0F31FE05BFD4F20910B0130910C01409115
S11312E00D0120833183428301968A30910524F3D2
S11312F089E090E053C0FC01EE0FFF1FE859FF4F57
S1131300E491F0E09F01220F331FE20FF31FE05B33
S1131310FD4F20911A0130911B0140911C01208343
S113132031834283E6E9F0E0E491F0E0BF01660F27
S1131330771FE60FF71FE05BFD4F20833183428365
S11313408B30910554F5FC013C96EE0FFF1FE859D4
S1131350FF4FE491F0E09F01220F331FE20FF31FD0
S1131360E05BFD4F20911D0130911E0140911F0152
S1131370208331834283FC017896EE0FFF1FE859E6
S1131380FF4FE491F0E0BF01660F771FE60FF71FF0
S1131390E05BFD4F20833183428301968C309105BD
S11313A00CF4A9CF6CE271E080E592E00E94C301E5
S11313B008950F931F93CF9325C08FEF8C0F8093C5
S11313C0D60584ED95E00E94B003892B51F004ED1D
S11313D015E0F801C2830E943B03F80110820E94C9
S11313E0E7038091D60581110BC00E943B03109244
S11313F0D4050E9469040E9456050E94E7030CC0AC
S11314000E946904C091D605C111D7CF84ED95E03F
S11314100E94B003892B89F2CF911F910F910895F7
S1071420F894FFCF6A
S113142401001E1E1E003300143300333300330046
S1131434001400330000330014330033140C21333C
S1131444010201000100000000000100010000008D
S11314540000000000000000000000000000000084
S1131464000003040100000000000000010000006B
S11314740000000001000000000000000100000062
S1131484000000000103010001000100000000004D
S11314940000010000000000000000000000000043
S11314A4000000000000010300000000010000002F
S11314B40100010001000000000000000000000021
S11314C4000000000000000001030100010001000D
S11314D40000000001000000000000000000000003
S11314E400000000000000000000010300000100EF
S11314F401000000010001000000000000000000E1
S113150400000000000000000000000001030100CE
S113151401000000000000000100010000000000C0
S113152400000000000000000000000000000104AE
S1131534010001000100010000000000000000009F
S11315440000000000000000000000000000000093
S1051554C800C9
S9030000FC
